:020000040000fa
:080000000001040000000000f3
:020000040000fa
:04000800a202000050
:020000040000fa
:04000c00a20200004c
:020000040000fa
:04001000a202000048
:020000040000fa
:04001400a202000044
:020000040000fa
:04001800a202000040
:020000040000fa
:04001c00a20200003c
:020000040000fa
:04002000a202000038
:020000040000fa
:04002400a202000034
:020000040000fa
:04002800a202000030
:020000040000fa
:04002c00a20200002c
:020000040000fa
:04003000a202000028
:020000040000fa
:04003400a202000024
:020000040000fa
:04003800a202000020
:020000040000fa
:04003c00a20200001c
:020000040000fa
:04004000a202000018
:020000040000fa
:04004400a202000014
:020000040000fa
:04004800a202000010
:020000040000fa
:04004c00a20200000c
:020000040000fa
:04005000a202000008
:020000040000fa
:0400540004020000a2
:020000040000fa
:04005800a202000000
:020000040000fa
:04005c00a2020000fc
:020000040000fa
:04006000a2020000f8
:020000040000fa
:04006400a2020000f4
:020000040000fa
:04006800a2020000f0
:020000040000fa
:04006c00a2020000ec
:020000040000fa
:04007000a2020000e8
:020000040000fa
:040074005602000030
:020000040000fa
:04007800a2020000e0
:020000040000fa
:04007c00a2020000dc
:020000040000fa
:04008000a2020000d8
:020000040000fa
:04008400a2020000d4
:020000040000fa
:04008800a2020000d0
:020000040000fa
:04008c00a2020000cc
:020000040000fa
:04009000a2020000c8
:020000040000fa
:04009400a2020000c4
:020000040000fa
:04009800a2020000c0
:020000040000fa
:04009c00a2020000bc
:020000040000fa
:0400a0001802000042
:020000040000fa
:0400a400a2020000b4
:020000040000fa
:0400a800a2020000b0
:020000040000fa
:0400ac00a2020000ac
:020000040000fa
:0400b000a2020000a8
:020000040000fa
:0400b400a2020000a4
:020000040000fa
:0400b800a2020000a0
:020000040000fa
:0400bc00a20200009c
:020000040000fa
:0400c000a202000098
:020000040000fa
:0400c400a202000094
:020000040000fa
:0400c800a202000090
:020000040000fa
:0400cc00a20200008c
:020000040000fa
:0400d000a202000088
:020000040000fa
:0400d400a202000084
:020000040000fa
:0400d800a202000080
:020000040000fa
:0400dc00a20200007c
:020000040000fa
:0400e000a202000078
:020000040000fa
:0400e400a202000074
:020000040000fa
:0400e800a202000070
:020000040000fa
:0400ec00a20200006c
:020000040000fa
:0400f000a202000068
:020000040000fa
:0400f400a202000064
:020000040000fa
:0400f800a202000060
:020000040000fa
:0400fc00a20200005c
:020000040000fa
:04010000a202000057
:020000040000fa
:04010400a202000053
:020000040000fa
:04010800a20200004f
:020000040000fa
:04010c00a20200004b
:020000040000fa
:04011000a202000047
:020000040000fa
:04011400a202000043
:020000040000fa
:04011800a20200003f
:020000040000fa
:04011c00a20200003b
:020000040000fa
:04012000a202000037
:020000040000fa
:04012400a202000033
:020000040000fa
:04012800a20200002f
:020000040000fa
:04012c00a20200002b
:020000040000fa
:04013000a202000027
:020000040000fa
:04013400a202000023
:020000040000fa
:04013800a20200001f
:020000040000fa
:04013c00a20200001b
:020000040000fa
:04014000a202000017
:020000040000fa
:04014400a202000013
:020000040000fa
:04014800a20200000f
:020000040000fa
:04014c00a20200000b
:020000040000fa
:04015000a202000007
:020000040000fa
:04015400a202000003
:020000040000fa
:04015800a2020000ff
:020000040000fa
:04015c00a2020000fb
:020000040000fa
:04016000a2020000f7
:020000040000fa
:04016400a2020000f3
:020000040000fa
:04016800a2020000ef
:020000040000fa
:04016c00a2020000eb
:020000040000fa
:04017000a2020000e7
:020000040000fa
:04017400a2020000e3
:020000040000fa
:04017800a2020000df
:020000040000fa
:04017c00a2020000db
:020000040000fa
:04018000a2020000d7
:020000040000fa
:04018400a2020000d3
:020000040000fa
:04018800a2020000cf
:020000040000fa
:04018c00a2020000cb
:020000040000fa
:04019000a2020000c7
:020000040000fa
:04019400a2020000c3
:020000040000fa
:04019800a2020000bf
:020000040000fa
:04019c00a2020000bb
:020000040000fa
:0401a000a2020000b7
:020000040000fa
:0401a400a2020000b3
:020000040000fa
:0401a800a2020000af
:020000040000fa
:0401ac00a2020000ab
:020000040000fa
:0401b000a2020000a7
:020000040000fa
:0401b400a2020000a3
:020000040000fa
:0401b800a20200009f
:020000040000fa
:0401bc00a20200009b
:020000040000fa
:0401c000a202000097
:020000040000fa
:0401c400a202000093
:020000040000fa
:0401c800a20200008f
:020000040000fa
:0401cc00a20200008b
:020000040000fa
:0401d000a202000087
:020000040000fa
:0401d400a202000083
:020000040000fa
:0401d800a20200007f
:020000040000fa
:0401dc00a20200007b
:020000040000fa
:0401e000a202000077
:020000040000fa
:0401e400a202000073
:020000040000fa
:0401e800a20200006f
:020000040000fa
:0401ec00a20200006b
:020000040000fa
:0401f000a202000067
:020000040000fa
:0401f400a202000063
:020000040000fa
:0401f800a20200005f
:020000040000fa
:0401fc00a20200005b
:020000040000fa
:10020000cff922000e7f24000e01880000000000bc
:10021000000020000000e000020032000001200089
:100220002002880014000700c80007000000e0005a
:1002300003003a0020512100010020000200370095
:100240000000200001002000810f7000010032003a
:1002500014000700000020000000e000020032004f
:100260000000020000000000501502000000000025
:100270000040da000000fe004440a900c030200029
:100280000000e00003003200002020009001880000
:100290004440a800000006008a1f78008b1f7800e9
:1002a00000000600a1028800800478000000eb0036
:1002b0001f003700e284440054a0b4009905ba003e
:1002c000e284440054a0b4009906ba00e2844400d9
:1002d00054a0b4000006eb00476fde00fd07b2003b
:1002e000ae018800636ce10003003a00eaff0700fa
:1002f0000000eb000e003700606ce10008003a00df
:10030000004deb000a05e800020039003420ec0043
:100310000af0a0008b05e900f9ff3e000400370059
:100320006168e100010032000086eb000b0007006d
:1003300019c7ba001905ba000e04e00003003a001c
:100340000a00e000dbff3a0000000600fe07b200f2
:10035000ae0288008a047800f5ff37000cd0a300b5
:10036000e20f4d001c00390089027800354dba00bb
:100370000a05e800020039003420ec000af0a00071
:100380008b05e9000f003200254dba000a05e80090
:10039000020039003420ec000af0a0008b05e900cf
:1003a000080032000c00e0000600320015cdba0053
:1003b0000a05e800020039003420ec000af0a00031
:1003c0008b05e9008984e80054a0b4000b00e0002c
:1003d000e2ff3a00000006009902ba00055d7800cd
:1003e0008b05e900f7ff3200c82ade00055d7800c2
:1003f0008b05e900f3ff32000c00e000f1ff320052
:1004000019ddba00eeff3700801f78000200fa0005
:10041000f01c8000004f78001e00fb00e01c8800ec
:100420008960a9000080fa004f00780000400600b3
:10043000809fbe000200fa00a01d8000004f7800df
:100440001e4078000004e00014003200714080007b
:10045000f03f2000808f500002003a000000eb00c7
:100460007040880070408000a1b3220081004000ed
:100470009e4878000000e8007040880071408000cd
:10048000a0b32200008040008040eb0001487800cb
:10049000d0f5220011c0b300014878008bc0a9003c
:1004a0000080fa004f00be0000400600809fbe00a2
:1004b0000000fa002134800000002200008060006b
:1004c0000000e0000300320010002000104088000f
:1004d00017003700213480000000210000806000f8
:1004e0000000e000030032002000200010408800df
:1004f0000f00370021348000008020000080600061
:100500000000e000030032003000200010408800ae
:100510000700370021348000004020000080600088
:100520000000e0000200320040002000104088007f
:100530008426ef008a60a9000080fa004f00be0008
:10054000004006000040da000000fe000000050048
:100550008001780002003700815978000201e9002b
:100560000200e000fcff3a00000006000200370035
:100570000204e0000b0032008101780000027800e4
:1005800030417800b14f5100f9ff320010002000d7
:1005900014427800934f5200030031000080eb00ba
:1005a000000006000000eb000000060000017800db
:1005b000b1417800035978000304e000fcff3a00e1
:1005c0000000060080007800010178003104e0009e
:0c05d000fdff3a00000051000000060092
:020000040000fa
:1005dc00312e00005761000074650000722000008d
:1005ec0020200000322e00004461000074610000e5
:1005fc00003300002e5600006965000077200000d3
:10060c0020200000203400002e4900006e660000ff
:10061c006f000000312e00004f4e00002020000023
:10062c002020000020200000322e00004f46000049
:10063c0046000000332e000041750000746f00006e
:10064c002020000020200000342e00004261000019
:10065c00636b0000003100002e530000686f000037
:10066c007720000020200000203200002e480000df
:10067c006964000065000000332e00004e2f00005e
:10068c00412000002020000020200000342e00001b
:10069c0042610000636b0000003100002e5300002b
:1006ac00686f000077200000322e0000436f0000be
:1006bc006e6e00006563000074000000332e0000b5
:1006cc00436f00006e6e00003f20000020200000f1
:1006dc00342e000042610000636b0000003100000a
:1006ec002e560000696500007720000020200000d5
:1006fc00203200002e4e00002f410000003300007d
:10070c002e4900006e6600006f20000020200000c3
:10071c00203400002e420000616300006b000000da
:10072c00312e00004e6500007431000020200000c6
:10073c0020200000322e00004e65000074320000b4
:10074c00003300002e4e00006574000033200000c2
:10075c0020200000203400002e42000061630000c5
:10076c006b00000020200000202000002020000052
:10077c00202000002020000020200000202000006d
:10078c00202000000057000061740000657200001a
:10079c00696e000067200000456e00006162000079
:1007ac006c65000064000000576100007465000077
:1007bc007220000073680000757400002064000053
:1007cc006f7700006e21000000410000757400007e
:1007dc006f2d00007761000074650000723a000014
:1007ec00204f00004e00000041750000746f0000a7
:1007fc002d77000061740000657200003a20000043
:10080c004f46000046000000536f0000696c00006a
:10081c00202000004c7500007820000020200000f3
:10082c00546500006d70000000460000004200009e
:10083c006c750000657400006f6f00007468000038
:10084c000044000069730000636f00006e6e0000ce
:10085c00656300007465000064000000312e000028
:10086c00204e000065740000776f0000726b000072
:10087c0031000000322e0000204e00006574000094
:10088c00776f0000726b000032000000332e000006
:10089c00204e000065740000776f0000726b000042
:1008ac00330000004e650000747700006f7200008a
:1008bc006b20000031000000736500006c650000c7
:1008cc0063740000656400002e2e00002e000000f2
:1008dc004e650000747700006f7200006b20000002
:1008ec00320000004e650000747700006f7200004b
:1008fc006b20000033000000436f00006d690000a6
:10090c006e670000205300006f6f00006e00000047
:10091c00313d00003e5400006f700000203200009a
:10092c003d3e0000546f0000702d00004d6400002f
:10093c00003300003d3e0000426f0000742d0000ab
:10094c004d640000203400003d3e0000426f00006a
:10095c0074000000200000000d0a0000000d0000d3
:10096c000a2d00002d4300004f4e00004e450000a4
:10097c00435400002046000049520000535400002c
:10098c002d2d00000d0a0000005200004542000011
:10099c004f4f0000540000000d0a00002d2d0000e8
:1009ac0052450000424f00004f5400002d2d000016
:1009bc000d0a00000044000049530000434f0000a2
:1009cc004e4e000045430000540000000d0a00008c
:1009dc002d2d000044490000534300004f4e0000f1
:1009ec004e450000435400002d2d00000d0a000060
:1009fc00005200002c3100000d000000434d00009f
:100a0c00443e0000000d00000a2d00002d460000a1
:100a1c006f7500006e640000204300004d44000020
:100a2c003e2d00002d0d00000a0000000d0a0000f4
:100a3c002d2d0000466f0000756e00006420000034
:100a4c004d410000432d00002d0d00000a00000058
:100a5c005354000052450000414d00005f4f000010
:100a6c00504500004e0000000d0a00002d2d000026
:100a7c005354000052450000414d0000204f00002f
:100a8c00504500004e2d00002d0d00000a00000006
:100a9c00534500004e4400005f44000041540000e8
:100aac00412c0000300000000d0a00002d2d00002c
:100abc0052450000515500004553000054200000e1
:100acc00324e0000442d00002d0d00000a000000e5
:100adc00534500004e4400005f44000041540000a8
:100aec00412c0000310000000d0a00002d2d0000eb
:100afc005354000052450000414d0000204f0000af
:100b0c00504500004e200000322d00002d0d00003d
:100b1c000a000000414f00004b0000000d0a0000cd
:100b2c002d2d0000524500004345000049560000a1
:100b3c0045440000203200004e4400002d2d0000e2
:100b4c000d0a0000002d00002d2d00002d2d0000a1
:100b5c002d2d00002d2d00002d2d00000d0a000064
:100b6c0000000000240000002424000000460000c7
:100b7c000d000000432c0000302c00003830000029
:100b8c00314600003132000042350000384400008c
:100b9c00324600000d0000004b2c0000310d00000f
:100bac000044000049530000434f00004e4e00002b
:100bbc0045430000540000002d2d00002d0d0000b9
:100bcc00000d00000a2d00002d4400006973000088
:100bdc00636f00006e6e000065630000742d0000f2
:080bec002d0d00000a000000bd
:020000040000fa
:100bf4000000fa00f0002000bd07070014c0b30095
:100c040013c0b3000041eb008040eb000040eb0058
:100c140074010700a0002000b507070014c0b3004a
:100c240013c0b3000041eb008040eb000040eb0038
:100c34006c01070050002000ad07070014c0b3008a
:100c440013c0b3000041eb008040eb000040eb0018
:100c540064010700a0002000a50707000042eb0084
:100c640013c0b3000041eb008040eb000040eb00f8
:100c74005c010700500020009d0707000042eb00c4
:100c840013c0b3000041eb008040eb000040eb00d8
:100c940054010700a0002000950707000042eb0064
:100ca4008041eb000041eb0011c0b3000040eb00b9
:100cb4004c010700500020008d0707000042eb00a4
:100cc4008041eb000041eb008040eb000040eb0072
:100cd4004401070014c0b30013c0b30012c0b30032
:100ce40011c0b3000040eb003e010700500020009b
:100cf4007f0707000042eb008041eb000041eb005e
:100d04008040eb000040eb00360107000042eb009e
:100d140013c0b30012c0b3008040eb000040eb00ee
:100d24003001070050002000710707000080fa001e
:100d3400000006000000fa000042eb008041eb00d6
:100d44000041eb008040eb000040eb002501070070
:100d540014c0b3008041eb000041eb008040eb0085
:100d64000040eb001f01070050002000600707004f
:100d74000080fa00000006000000fa000042eb00c8
:100d84008041eb000041eb008040eb000040eb00b1
:100d9400140107000042eb0013c0b3000041eb0054
:100da4008040eb000040eb000e01070050002000e3
:100db4004f0707000080fa00000006000400fa0054
:100dc400000f7800110798001e007800e10f500012
:100dd40009003c001e0078000000e0000600350019
:100de4001e009000ef0f500003003c001e00900016
:100df4000000e00002003d000040eb00310037003d
:100e04001e00780000f0a7000000ea000000ea00dd
:100e14004f00de00004078000042eb008041eb0010
:100e24000041780011c0b3000040eb00ed00070062
:100e34001e0090006100600000f0a7000000ea00be
:100e44000000ea004f00de00804178001e009000a0
:100e54006200600000f0a7000000ea000000ea0061
:100e64004f00de00004178001e0090006400600026
:100e740000f0a7000000ea000000ea004f00de00d6
:100e8400804078001e0090006800600000f0a70019
:100e94000000ea000000ea004f00de000040780095
:100ea4000342780082417800014178008040780054
:100eb4000040eb00cb000700500020000c070700a7
:100ec40010c0b3000080fa00000006000000fa0021
:100ed4000042eb008041eb000041eb0011c0b30085
:100ee4000040eb00bf0007000042eb008041eb0034
:100ef4000041eb008040eb000040eb00b90007002c
:100f040050002000fa0607000080fa0000000600e6
:100f14000000fa000042eb008041eb0012c0b30075
:100f240011c0b3000040eb00ae0007000042eb002c
:100f34008041eb000041eb008040eb000040eb00ff
:100f4400a800070050002000e90607000080fa000e
:100f5400000006000200fa00004f78001e407800ee
:100f64000004e0000f0032000042eb008041eb007f
:100f74000041eb008040eb000040eb0099000700cb
:100f840014c0b30013c0b30012c0b30011c0b30047
:100f94000040eb009300070050002000d406070037
:100fa4000e0037000042eb008041eb000041eb00f3
:100fb4008040eb000040eb008a0007000042eb0099
:100fc4008041eb0012c0b30011c0b3000040eb003d
:100fd4008400070050002000c50607000080fa00c6
:100fe400000006000a00fa00400798000000eb0029
:100ff40020079800730037000000eb0030079800ca
:101004006d0037003e0090000000e00030003a0020
:101014002e009000ce009000008040001040780028
:101024008000fb00000820000080600000f0a700a2
:101034000000ea000000ea004f00de00004f7800e4
:101044002e009000ce0090000080400010407800f8
:101054008000fb00000420000080600000f0a70076
:101064000000ea000000ea004f00de00104798008c
:101074002e009000ce0090000080400010407800c8
:101084008000fb00000220000080600000f0a70048
:101094000000ea000000ea004f00de00204798004c
:1010a4002e009000ce009000008040001040780098
:1010b4000000fb007000600000f0a7000000ea00e0
:1010c4000000ea004f00de00304798002f00370090
:1010d4002e009000ce009000008040001040780068
:1010e4000000fb006800600000f0a7000000ea00b8
:1010f4000000ea004f00de00004f78002e00900050
:10110400ce00900000804000104078000000fb00fa
:101114006400600000f0a7000000ea000000ea009c
:101124004f00de00104798002e009000ce00900083
:1011340000804000104078000000fb006200600066
:1011440000f0a7000000ea000000ea004f00de0003
:10115400204798002e009000ce00900000804000b0
:10116400104078000000fb006100600000f0a70060
:101174000000ea000000ea004f00de00304798005b
:101184002e0090000000e800200798003e429000e6
:10119400ae4190001e4190009e40780010c0b30004
:1011a4001000070050002000510607003e00900088
:1011b4000000e800300798003e009000e10f500066
:1011c40090ff34002e009000ce009000008040007c
:1011d400104078000004e00087ff3a000080fa0025
:1011e400000006000600fa00004f7800114798003e
:1011f4002247980033479800444798001e80fb001c
:10120400610060004800dd00713480000180a100ad
:1012140001007000703488001e4090000080fb00c4
:101224004f00dd00d133800001f0a1000100700007
:10123400d03388002e4090000080fb0061006000e5
:101244004e00dd00d133800001e0a10001007000f8
:10125400d03388003e4090000080fb0061006000b5
:101264004700dd00313380000170a10001007000ef
:10127400303388004e4090000080fb006100600025
:101284004a00dd003133800001a0a100010070009c
:10129400303388008f26a8008f26a9000080fa002a
:1012a400000006000600fa00004f7800114798007d
:1012b4002247980033479800444798001e80fb005b
:1012c400610060004800dd00713480000180a100ed
:1012d40001007000703488001e4090000080fb0004
:1012e4004f00dd00d133800001f0a1000100700047
:1012f400d03388002e4090000080fb006100600025
:101304004e00dd00d133800001e0a1000100700037
:10131400d03388003e4090000080fb0061006000f4
:101324004700dd00313380000170a100010070002e
:10133400303388004e4090000080fb006100600064
:101344004a00dd003133800001a0a10001007000db
:10135400303388008f26a8008f26a9000080fa0069
:10136400000006000000fa000028ef0071fe0700ec
:10137400e02e28001bff0700e5fe0700f02f2800e1
:1013840018ff07000040eb00f2fe07000080fa009f
:10139400000006000000fa00100020000040880051
:1013a40064fe0700003128000eff0700d8fe070086
:1013b400003228000bff07000080fa00000006003e
:1013c4000000fa00200020000040880059fe0700b9
:1013d4001033280003ff0700cdfe07002034280047
:1013e40000ff07000080fa00000006000000fa0079
:1013f40030002000004088004efe070030352800f1
:10140400f8fe0700c2fe070040362800f5fe07007c
:101414000080fa00000006000000fa0040002000ee
:101424000040880043fe070050372800edfe070007
:10143400b7fe070050382800eafe07000080fa00d3
:10144400000006000000fa00500020000040880060
:1014540038fe070060392800e2fe0700acfe0700f2
:10146400703a2800dffe07000080fa000000060042
:101474000000fa00a6fe0700803b2800d9fe070002
:10148400a3fe0700903c2800d6fe070080bb200086
:1014940097050700bfff07000080fa000000060060
:1014a4000000fa009afe0700803b2800cdfe0700ea
:1014b40097fe0700a03d2800cafe070080bb20005d
:1014c4008b050700b3ff07000080fa000000060048
:1014d4000000fa0004c8bf000004a2000080fb0062
:1014e4000040780004e8b70004c8bf000004e0002e
:1014f4000a00320075fe0700803b2800b9fe070091
:1015040072fe0700b03e2800b6fe070080bb200034
:10151400770507009fff0700090037006bfe0700ef
:10152400803b2800affe070068fe0700a03f2800ac
:10153400acfe070080bb20006d05070095ff070087
:101544000080fa00000006000200fa0040f42200c5
:10155400104078000004e0001b003200f0cdb3001e
:10156400004f78000040eb0010479800f1fd0700a1
:10157400a04028009bfe070065fe0700a0f32200a0
:1015840098fe070061002000100020000bfe0700f9
:10159400a0f322006500400092fe0700b100200085
:1015a4001000200005fe0700a0f322006a0040009e
:1015b4008cfe07000e0078008afe0700b041280068
:1015c40088fe07000a003700dafd0700d041280032
:1015d40084fe07004efe07007042280081fe0700cb
:1015e4000568ef00803e20004105070074ff0700f6
:1015f4000080fa00000006000000fa00cdfd07009c
:1016040043fe07004043280076fe0700c05d20002b
:1016140037050700c7fd07004043280071fe070097
:101624003bfe0700004428006efe0700c05d20005a
:101634002f050700bffd07000044280069fe0700ce
:1016440033fe0700c044280066fe0700c05d20008a
:1016540027050700b7fd0700c044280061fe070006
:10166400c05d200022050700b2fd0700803e200077
:101674001f0507005dff07000080fa000000060058
:101684000200fa00000f78001e007800e20f5000fc
:101694000e003200e30f500016003200e10f50003c
:1016a4001f003a00a3fd0700804528004dfe0700f7
:1016b40017fe0700204628004afe0700007d200090
:1016c4000b05070049ff07001600370099fd0700c6
:1016d400e046280043fe07000dfe070020462800d0
:1016e40040fe0700007d2000010507003fff0700c2
:1016f4000c0037008ffd07008047280039fe0700e3
:1017040003fe07002046280036fe0700007d200067
:10171400f704070035ff0700000000000100370050
:10172400000000000080fa00000006000000fa003b
:1017340080fd0700204828002afe0700c05d200025
:10174400eb04070029ff07000080fa0000000600f0
:101754000000fa0077fd0700e048280021fe07009a
:10176400ebfd0700f04928001efe0700409c200006
:10177400df04070028ff07000080fa0000000600cd
:101784000800fa000000eb00000f780010002000b1
:10179400100798001e009000004078000043b0003d
:1017a40040479800e0c2b300504798000040eb0067
:1017b400604798003c0037001e0078000000e000fd
:1017c40016003a001e009000004078000043b0006c
:1017d4004047980057fd0700cdfd0700640047000f
:1017e40000fe0700228120009e007800401f200098
:1017f4000088b9000000780000004100f9fd0700ee
:101804001e0fe8001e0090000000e800100798007a
:10181400e02e2000b60407002300370045fd070032
:101824001e00900000407800f042b000404798004d
:1018340064004700ebfd0700228120001e007800b1
:101844008000e900401f20000088b90000007800f3
:1018540000004100e3fd0700adfd07001e009000fd
:10186400004078000043b0004047980064004700ff
:10187400dcfd0700228120009e007800401f20002c
:101884000088b9000000780000004100d5fd070081
:101894001e0fe8001e0090000000e80010079800ea
:1018a400e02e2000920407009e007800401f2000d4
:1018b4000088b90000007800e6004000c0802000e5
:1018c40000804000104078000004e000baff3a00b5
:1018d40018fd07001e00900000407800f042b000a0
:1018e4004047980064004700befd070022812000a5
:1018f4001e0078008000e900401f20000088b90025
:101904000000780000004100b6fd0700e02e200032
:1019140077040700c0fe07000080fa0000000600fc
:101924000200fa00000f78001e007800e10f50005a
:1019340007003a00805b28001f040700c00d200048
:101944006b040700a05b28001b0407000b00370092
:101954001e007800e20f500003003a00d05b28001c
:1019640015040700050037001e007800e30f50003f
:1019740002003a00005c28000f0407000080fa000f
:1019840000000600d200fa0000af98000000eb004f
:10199400000f78000000eb001007980001003700ea
:1019a4001e0fe8001e0078008ea890000080400002
:1019b400104078000004e000610032001e0078004e
:1019c4008ea89000008040009040780050c2b30080
:1019d40080cf5000f2ff3a005a0037000000eb00bd
:1019e40020079800010037001e0fe8001e00780051
:1019f4008ea89000008040009040780050c2b30050
:101a040080cf5000f8ff32000c0037001e00780031
:101a14008ea8900000804000904078006801470044
:101a24002e00900000004100014878002e00900034
:101a34000000e800200798001e0fe8001e00780050
:101a44008ea8900000804000104078000004e00060
:101a5400070032001e0078008ea89000008040002d
:101a64009040780050c2b30080cf5000e7ff3a00a6
:101a7400e80047002e009000008040008040eb000a
:101a8400014878000000eb00300798000c00370094
:101a9400e80047003e00900000804000904078003d
:101aa400c20620000e0141003e00900000004100eb
:101ab400014878003e0090000000e80030079800dc
:101ac400e80047003e00900000804000904078000d
:101ad400c0c2b30080cf5000edff3a00c106200021
:101ae4008e8040003e009000008040008040eb006b
:101af400014878000e4890000004e0001100320014
:101b04000e489000ed4f50000e003200228120005c
:101b14009e009000401f20000088b900000078005b
:101b2400000041009e0090008100e8001107980029
:101b3400c10620008e8040009bfa07000100370098
:101b4400000000001e0078008ea890000080400075
:101b5400104078000004e000a0ff3a000080fa0082
:101b6400000006000e00fa00889fbe008a1f78005d
:101b740050079800610798000f0478000f00780060
:101b8400800478005e0090008dfa070080007800e1
:101b94008100e900310798000000e8000000e80037
:101ba4000000d100800040000f00780081874700ca
:101bb4000000e8000000d100000040004007980049
:101bc4005e0090007efa07000000e900000f780034
:101bd4000000eb0020079800240037000000eb0011
:101be400100798000d0037009e0090002e00900012
:101bf40000804000ee00900000804000904078009b
:101c04004e0190001e009000000041000148780041
:101c14001e0090000000e800100798001e059000c8
:101c24005e00900066fa0700800f5500eeff390051
:101c3400ce0090001e009000008040008040eb0029
:101c4400014878004e009000de00900046fa07003c
:101c54000000e00002003a0010c0b3000f0037009b
:101c64002e0090000000e800200798001e00780075
:101c7400ee00900000804000104078000080fb00df
:101c84000000ea004f00de00004078001e0fe8006c
:101c94000004e000d1ff3a000040eb00890778001f
:101ca400880778004f0578004f04be000080fa00d2
:101cb400000006000c00fa00500798000000eb003a
:101cc400400798000000eb00000f78000c0037007c
:101cd400e03222009e004000c080200000804000ce
:101ce40090407800c0c2b30080cf500003003a0097
:101cf4004e0090000000e800400798001e0fe80026
:101d0400e03222009e004000c0802000008040009d
:101d1400104078000004e000edff3a004e0090000f
:101d2400e30f5000020032000040eb00490037008e
:101d34000000eb0020079800804080006300b90099
:101d440000007800000f78003b0037000000eb0033
:101d540030079800ae009000110798002900370062
:101d64009e009000e032220080804000c08020006d
:101d74000080400090407800f0c2b30080cf500053
:101d84001a0034009e009000e0322200808040005f
:101d9400c0802000008040009040780090c3b300d1
:101da40080cf500011003c009e009000e0322200e1
:101db40080804000c08020000080400010417800f6
:101dc4001e0078006500b900800078003e00900095
:101dd40080804000a0f32200008040000248780088
:101de4003e0090000000e800300798002e009000ac
:101df4000000e800200798001e0090000000e800a2
:101e0400100798009e009000e0322200808040007d
:101e1400c08020000080400090407800c0c2b30021
:101e240080cf5000ceff3a002e0090000000e80062
:101e3400200798001e0fe800804080000000e800a2
:101e44006300b900000078009e0f5000bfff3c0003
:101e540010c0b3000080fa00000006000000fa0081
:101e640010002000aefe07009001200020030700b0
:101e7400205d2800d002070000000000a1b322006a
:101e8400705d280037ff07000004a2000004e00092
:101e9400faff3a00205e2800c7020700a0002000d5
:101ea40013030700024020008000eb00a0b32200cf
:101eb400a6f907000000eb0070408800705e28005f
:101ec400a30207000080fa00000006000200fa00e6
:101ed4000a28ef00e0f522008040eb00014878007a
:101ee400c0f522008040eb000148780080f5220014
:101ef40011c0b3000148780090f5220011c0b3006e
:101f040001487800a0f5220011c0b3000148780010
:101f1400024020008000eb00a0b322008bf90700f0
:101f24000000eb00000f78000a0037009e007800e4
:101f3400401f20000088b900800078002081200024
:101f440000804000421f20008000eb007ff9070062
:101f54001e0fe8001e007800ee0f5000f3ff34005f
:101f64000000eb00804088000000eb007040880017
:101f74000080fa00000006000400fa0005c8bf0053
:101f84000004e00005003200d0f522001040780083
:101f94000004e000010032006bfd070010408000e7
:101fa4000000e0000200320010408000d50107006c
:101fb400c0f52200104078000004e0001c0032004c
:101fc4000000eb00000f780009003700a2f32200a4
:101fd4001e0078006500b900000078000000410090
:101fe4005b020700004b2800590207001e0fe8009f
:101ff4001e007800e80f50000a003c001e00780024
:102004006500b90080007800e07222008080400002
:10201400c080200000804000104078000004e000f0
:10202400eaff3a00204b2800490207000400370069
:10203400a0b3220046020700204b280044020700f8
:10204400e0f52200104078000004a2000004e00043
:1020540009003200e0f5220011c0b3000148780005
:10206400504b28003a020700100020002cfe070005
:102074001000200050408800a1b32200b04c28007a
:10208400b8fe07000004e00003003200204d2800e1
:102094002f0207008dff0700a1b32200104e280075
:1020a400b0fe07000004e00004003200c04e280027
:1020b40027020700f04f28003f020700504080002d
:1020c4000000e000c700320050408000e10f5000e3
:1020d4005f003a0080f52200104078000004e00020
:1020e40012003200a1b32200405028009dfe0700d8
:1020f4000004e0000d00320080f522008040eb0077
:1021040001487800024020008000eb00a0b32200c8
:102114000ef907000000eb00704088009050280082
:102124000b02070020002000fdfd070090f52200af
:10213400104078000004e00002003200a0b3220046
:1021440010fe070090f52200104078000004e00023
:1021540012003200a1b3220040f7220081fe0700e2
:102164000004e0000d00320090f522008040eb00f6
:1021740001487800024020008000eb00a0b3220058
:10218400f2f807000000eb0070408800c0512800fe
:10219400ef01070030002000e1fd0700a0f5220058
:1021a400104078000004e00015003200a1b32200c2
:1021b400e05228006bfe07000004e000100032002b
:1021c400a0f522008040eb00014878000240200086
:1021d4008000eb00a0b32200dcf807000000eb0055
:1021e40070408800a0532800d9010700c0f52200e0
:1021f40011c0b30001487800e0542800ee01070044
:10220400c0f52200104078000004e00075003200a0
:10221400a0b32200a7fe07000004e0007100320012
:10222400024020008000eb00a0b32200c7f80700a2
:102234000000eb0070408800804080000000e8004f
:10224400804088002000200050408800650037004e
:1022540050408000e20f50004e003a00c0f52200ca
:10226400104078000004e0000e003200c0f52200a7
:102274008040eb0001487800024020008000eb0021
:10228400a0b32200b1f807000000eb007040880002
:10229400a0552800ae010700e0562800c60107003b
:1022a400eefe0700a1b32200e05228002dfe070035
:1022b4000004e0000a003200024020008000eb002d
:1022c400a0b32200a1f807000000eb0070408800d2
:1022d400a05728009e01070000592800b6010700f6
:1022e400a0b3220073fe07000004e0003d003200aa
:1022f400024020008000eb00a0b3220093f8070006
:102304000000eb007040880040592800900107004d
:102314000000eb0080408800d0fe0700905a28009f
:102324008b0107000000eb00100798000b0037003a
:10233400a2f322001e0090006500b900000078009e
:10234400000041009e0090008100e8001107980001
:102354007f010700204b28007d0107001e0090002c
:102364006500b90080007800e0722200808040009f
:10237400c080200000804000104078000004e0008d
:10238400ebff3a00905a2800710107000a28ef0079
:102394001400370050408000e30f50001100320059
:1023a40050408000e40f50000e0032005040800086
:1023b400ef0f50000b003a00a1b32200e0522800b6
:1023c400e8fd07000004e00006003200024020009f
:1023d4008000eb00a0b322005cf807000000eb00d3
:1023e40070408800d0f522008040eb00014878005e
:1023f4000080fa00000006000000fa000600070052
:102404000d00070045000700520007006a0007009e
:102414000080fa00000006000000fa007a26ef00af
:102424000080eb00b03388007e26ef007726a900f9
:102434000080fa00000006000000fa009823ef0074
:102444009a23ef0076e6a9007706a800d13e800023
:10245400f00f280080806000003020000100700030
:10246400d03e8800a13d800000fc2f000080600069
:102474000030a000a03d88008960a90061058000ab
:10248400f0ff28008080600000002300010070003d
:10249400600588009960a80090012000001d880054
:1024a40099e3a8009b43a800ae23ef00b023ef00fc
:1024b400b13e8000f00f28008080600000502000b2
:1024c40001007000b03e8800b13d800000fc2f0088
:1024d400008060000010a000b03d88007666a9006e
:1024e4007646a8008bc0a900b1058000f08f2f00ac
:1024f400808060000030200001007000b00588007a
:102504009bc0a80090012000b01d8800afe3a80084
:10251400b143a8000080fa00000006000000fa00a1
:102524008b06a9008b26a90077e6a90077c6a90027
:1025340062e6a9006346a900adf90700fdf90700aa
:1025440010c0b30083fa070086fb07000080fa007e
:10255400000006000000fa0077a6a8007786a8000d
:102564007766a8007746a8008346a8008366a8007b
:102574008386a80083a6a8008746a8008766a800cb
:102584008786a80087a6a8005fe6a8008426ef0037
:102594008a60a90081058000f0ff28008080600027
:1025a4000000230001007000800588009a60a800e4
:1025b4000080fa00000006000200fa000000eb00b0
:1025c400000f78000a0037009e007800401f2000aa
:1025d4000088b9008000780020812000008040003d
:1025e400421f20008000eb00d8f707001e0fe80010
:1025f4001e007800ee0f5000f3ff34000000eb00e3
:10260400000f78000a0037009e007800401f200069
:102614000088b90080007800e05522000080400066
:10262400421f20008000eb00c8f707001e0fe800df
:102634001e007800e20f5000f3ff34000000eb00ae
:10264400000f7800090037001e0078006500b9000b
:1026540080007800a0f32200008040005200200097
:102664008000eb00b9f707001e0fe8001e00780099
:10267400e50f5000f4ff3400024020008000eb001e
:10268400a0b32200b1f70700c080200011c0b3003e
:1026940001487800b0f522008040eb000148780042
:1026a400d0f522008040eb0001487800c0f52200fc
:1026b4008040eb0001487800e0f522008040eb0008
:1026c4000148780080f5220011c0b3000148780069
:1026d40090f5220011c0b30001487800a0f5220053
:1026e40011c0b300014878000000eb00804088006e
:1026f4000000eb00704088000a28ef000080fa0018
:10270400000006000200fa00000f7800004080007c
:10271400e20f500036003200e20f500005003c008a
:102724000000e0000a003200e10f50001c003200fb
:1027340084003700e40f500052003200e40f5000d0
:102744003d003500e50f50005c0032007d0037008d
:102754001e007800e10f500002003a000dfb070054
:10276400780037001e007800e20f500002003a00a3
:1027740013fb0700730037001e007800e30f5000be
:1027840002003a00fefb07006e0037001e007800ce
:10279400e40f500060003a00edfb070069003700c9
:1027a4001e007800e10f500002003a0030fb0700e1
:1027b400640037001e007800e20f500002003a0067
:1027c40037fb07005f0037001e007800e30f50005e
:1027d40002003a003efb07005a0037001e00780052
:1027e400e40f50004e003a00defa070055003700af
:1027f4001e007800e10f500003003a0010c0b3003f
:1028040005e8b7004f0037001e007800e20f5000c3
:1028140003003a000568ef00e9fa070049003700b1
:102824001e007800e40f50003f003a000568ef00f6
:10283400ccfa0700430037001e007800e10f500077
:1028440002003a006cfb0700090037001e00780004
:10285400e20f500002003a00fafa070004003700c1
:102864001e007800e30f500001003a00affb0700a0
:102874001e007800e40f50002d003a00b9fa07005a
:10288400300037001e007800e10f500001003a00cc
:10289400bbfb07001e007800e30f500002003a0063
:1028a400abfb0700270037001e007800e40f500040
:1028b40021003a00abfa0700220037001e0078001e
:1028c400e10f500003003a00100020006cfb0700e9
:1028d4001c0037001e007800e20f500003003a008d
:1028e4002000200066fb0700160037001e00780059
:1028f400e30f500003003a003000200060fb0700a3
:10290400100037001e007800e40f50000c003a005d
:10291400b6fa07000b00370000000000090037007a
:102924000000000007003700000000000500370029
:102934000000000003003700000000000100370021
:10294400000000000228ef000080fa0000000600ea
:102954000400fa00100798000000eb00000f780054
:102964000d00370000000000d11c80000010200082
:10297400008060000000e000fbff32001e007800d1
:102984009e00900000804000104078000000fb0092
:10299400e01c88001e0fe8001e0078009e009000d6
:1029a40000804000104078000004e000edff3a0091
:1029b4000080fa00000006000400fa0010079800e6
:1029c4000000eb00000f78000d003700000000004d
:1029d400811d800000102000008060000000e000e5
:1029e400fbff32001e0078009e0090000080400033
:1029f400104078000000fb00901d88001e0fe800c6
:102a04001e0078009e009000008040001040780076
:102a14000004e000edff3a000080fa000000060028
:020000040000fa
:102a2400742f0000280000008200000038303100bc
:102a3400463132004235380044324600000000007e
:102a440000000000000038003031460031324200fe
:102a5400433437004236000000000000000000004c
:102a6400000000000c08000068270000800000003f
:102a7400080800000200000082000000e8030000d3
:102a84000008000008000000800000000a080000a0
:0c2a9400020000008000000000000000b4
:020000040000fa
:102aa0000000fa0055fe0700a00f200011000700eb
:102ab000d1338000002020000080600000f0a700db
:102ac0000000ea000000e9004f00de00004078004e
:102ad0000080fb00610060004900dd00d133800010
:102ae0000190a10001007000d033880023fd070091
:102af000edff37000600fa00200798002e00900036
:102b000000004000000f78000a003700c0112000cc
:102b100010079800030037001e0090000000e90035
:102b2000100798001e0090000000e000faff3c0033
:102b30001e0fe9001e0078000000e000f3ff3c00db
:082b40000080fa00000006000d
:020000040000fa
:020000040005f5
:045e0000ffff0000a0
:020000040000fa
:020000040005f5
:045e2000ffffff0081
:020000040000fa
:020000040005f5
:045e3000f8ffff0078
:020000040000fa
:020000040005f5
:045e3800b7ffff00b1
:020000040000fa
:020000040005f5
:045e40009fffff00c1
:020000040000fa
:020000040005f5
:045e4800ffffff0059
:020000040000fa
:020000040005f5
:045e5000dfffff0071
:020000040000fa
:020000040005f5
:045e5800ffffff0049
:00000001FF
