:020000040000fa
:080000000001040000000000f3
:020000040000fa
:0400080030030000c1
:020000040000fa
:04000c0030030000bd
:020000040000fa
:0400100030030000b9
:020000040000fa
:0400140030030000b5
:020000040000fa
:0400180030030000b1
:020000040000fa
:04001c0030030000ad
:020000040000fa
:0400200030030000a9
:020000040000fa
:0400240030030000a5
:020000040000fa
:0400280030030000a1
:020000040000fa
:04002c00300300009d
:020000040000fa
:040030003003000099
:020000040000fa
:04003400dc020000ea
:020000040000fa
:040038003003000091
:020000040000fa
:04003c00300300008d
:020000040000fa
:040040003003000089
:020000040000fa
:040044003003000085
:020000040000fa
:040048003003000081
:020000040000fa
:04004c00300300007d
:020000040000fa
:040050003003000079
:020000040000fa
:0400540004020000a2
:020000040000fa
:040058003003000071
:020000040000fa
:04005c00300300006d
:020000040000fa
:040060003003000069
:020000040000fa
:040064003003000065
:020000040000fa
:040068003003000061
:020000040000fa
:04006c00300300005d
:020000040000fa
:040070003003000059
:020000040000fa
:040074007602000010
:020000040000fa
:04007800c2020000c0
:020000040000fa
:04007c00300300004d
:020000040000fa
:040080003003000049
:020000040000fa
:040084003003000045
:020000040000fa
:040088003003000041
:020000040000fa
:04008c00300300003d
:020000040000fa
:040090003003000039
:020000040000fa
:040094003003000035
:020000040000fa
:040098003003000031
:020000040000fa
:04009c00300300002d
:020000040000fa
:0400a0003802000022
:020000040000fa
:0400a4003003000025
:020000040000fa
:0400a8003003000021
:020000040000fa
:0400ac00300300001d
:020000040000fa
:0400b0003003000019
:020000040000fa
:0400b4003003000015
:020000040000fa
:0400b8003003000011
:020000040000fa
:0400bc00300300000d
:020000040000fa
:0400c0003003000009
:020000040000fa
:0400c4003003000005
:020000040000fa
:0400c8003003000001
:020000040000fa
:0400cc0030030000fd
:020000040000fa
:0400d00030030000f9
:020000040000fa
:0400d40030030000f5
:020000040000fa
:0400d80030030000f1
:020000040000fa
:0400dc0030030000ed
:020000040000fa
:0400e00030030000e9
:020000040000fa
:0400e40030030000e5
:020000040000fa
:0400e80030030000e1
:020000040000fa
:0400ec0030030000dd
:020000040000fa
:0400f00030030000d9
:020000040000fa
:0400f40030030000d5
:020000040000fa
:0400f80030030000d1
:020000040000fa
:0400fc0030030000cd
:020000040000fa
:0401000030030000c8
:020000040000fa
:0401040030030000c4
:020000040000fa
:0401080030030000c0
:020000040000fa
:04010c0030030000bc
:020000040000fa
:0401100030030000b8
:020000040000fa
:0401140030030000b4
:020000040000fa
:0401180030030000b0
:020000040000fa
:04011c0030030000ac
:020000040000fa
:0401200030030000a8
:020000040000fa
:0401240030030000a4
:020000040000fa
:0401280030030000a0
:020000040000fa
:04012c00300300009c
:020000040000fa
:040130003003000098
:020000040000fa
:040134003003000094
:020000040000fa
:040138003003000090
:020000040000fa
:04013c00300300008c
:020000040000fa
:040140003003000088
:020000040000fa
:040144003003000084
:020000040000fa
:040148003003000080
:020000040000fa
:04014c00300300007c
:020000040000fa
:040150003003000078
:020000040000fa
:040154003003000074
:020000040000fa
:040158003003000070
:020000040000fa
:04015c00300300006c
:020000040000fa
:040160003003000068
:020000040000fa
:040164003003000064
:020000040000fa
:040168003003000060
:020000040000fa
:04016c00300300005c
:020000040000fa
:040170003003000058
:020000040000fa
:040174003003000054
:020000040000fa
:040178003003000050
:020000040000fa
:04017c00300300004c
:020000040000fa
:040180003003000048
:020000040000fa
:040184003003000044
:020000040000fa
:040188003003000040
:020000040000fa
:04018c00300300003c
:020000040000fa
:040190003003000038
:020000040000fa
:040194003003000034
:020000040000fa
:040198003003000030
:020000040000fa
:04019c00300300002c
:020000040000fa
:0401a0003003000028
:020000040000fa
:0401a4003003000024
:020000040000fa
:0401a8003003000020
:020000040000fa
:0401ac00300300001c
:020000040000fa
:0401b0003003000018
:020000040000fa
:0401b4003003000014
:020000040000fa
:0401b8003003000010
:020000040000fa
:0401bc00300300000c
:020000040000fa
:0401c0003003000008
:020000040000fa
:0401c4003003000004
:020000040000fa
:0401c8003003000000
:020000040000fa
:0401cc0030030000fc
:020000040000fa
:0401d00030030000f8
:020000040000fa
:0401d40030030000f4
:020000040000fa
:0401d80030030000f0
:020000040000fa
:0401dc0030030000ec
:020000040000fa
:0401e00030030000e8
:020000040000fa
:0401e40030030000e4
:020000040000fa
:0401e80030030000e0
:020000040000fa
:0401ec0030030000dc
:020000040000fa
:0401f00030030000d8
:020000040000fa
:0401f40030030000d4
:020000040000fa
:0401f80030030000d0
:020000040000fa
:0401fc0030030000cc
:020000040000fa
:10020000cf3d23000e7f24000e0188000000000077
:10021000000020000000e000020032000001200089
:1002200020028800140007000f0107000000e00012
:1002300003003a000099210001002000020037006d
:100240000000200001002000810f7000010032003a
:1002500014000700000020000000e000020032004f
:1002600000000200000000001a1a02000000000056
:100270000040da000000fe004440a9008024200075
:100280000000e00003003200002020009001880000
:100290004440a800000006008a1f78008b1f7800e9
:1002a00000000600a1028800800478000000eb0036
:1002b0001f003700e284440054a0b4009905ba003e
:1002c000e284440054a0b4009906ba00e2844400d9
:1002d00054a0b4000006eb00476fde00fd07b2003b
:1002e000ae018800636ce10003003a00eaff0700fa
:1002f0000000eb000e003700606ce10008003a00df
:10030000004deb000a05e800020039003420ec0043
:100310000af0a0008b05e900f9ff3e000400370059
:100320006168e100010032000086eb000b0007006d
:1003300019c7ba001905ba000e04e00003003a001c
:100340000a00e000dbff3a0000000600fe07b200f2
:10035000ae0288008a047800f5ff37000cd0a300b5
:10036000e20f4d001c00390089027800354dba00bb
:100370000a05e800020039003420ec000af0a00071
:100380008b05e9000f003200254dba000a05e80090
:10039000020039003420ec000af0a0008b05e900cf
:1003a000080032000c00e0000600320015cdba0053
:1003b0000a05e800020039003420ec000af0a00031
:1003c0008b05e9008984e80054a0b4000b00e0002c
:1003d000e2ff3a00000006009902ba00055d7800cd
:1003e0008b05e900f7ff3200c82ade00055d7800c2
:1003f0008b05e900f3ff32000c00e000f1ff320052
:1004000019ddba00eeff3700809fbe000200fa003f
:10041000f01c8000004f7800409c810081f8220091
:10042000810040009e4878000000e800409c890060
:10043000419c810080f82200008040008040eb0059
:1004400001487800c0c7b3009e40780080cf5000bc
:1004500003003a00a038230011c0b300014878001f
:100460008960a9000080fa004f00be00004006002d
:10047000809fbe000200fa00a01d8000004f78009f
:100480001e4078000004e00014003200114180009a
:10049000f03f2000808f500002003a000000eb0087
:1004a0001041880010418000e1b42200810040002a
:1004b0009e4878000000e80010418800114180004b
:1004c000e0b42200008040008040eb00014878004a
:1004d00010f8220011c0b300014878008bc0a900b9
:1004e0000080fa004f00be0000400600809fbe0062
:1004f0000000fa002134800000002200008060002b
:100500000000e000030032001000200030408800ae
:1005100017003700213480000000210000806000b7
:100520000000e0000300320020002000304088007e
:100530000f00370021348000008020000080600020
:100540000000e0000300320030002000304088004e
:100550000700370021348000004020000080600048
:100560000000e0000200320040002000304088001f
:100570008426ef008a60a9000080fa004f00be00c8
:1005800000400600801f78000000fa008a80a90061
:1005900070348000680060000000e000030032005a
:1005a000c04080000000e800c04088000080fa00e1
:1005b0004f00780000400600809fbe000000fa0057
:1005c0008860a9007b26a8009021ef007040800081
:1005d0000000e8007040880071408000703e2000fc
:1005e000808f50000d003a0081408000b003200051
:1005f000808f500005003a001028ef0090408000e6
:100600000000e80090408800030037008040800030
:100610000000e800804088000e28ef008140800044
:10062000a0408000808f50000a003a009140800076
:10063000b0408000808f500006003a007b26a90061
:100640008e66a9000e28ef001028ef001228ef0098
:1006500095e1a9000080fa004f00be0000400600ae
:100660000040da000000fe00000005008001780074
:1006700002003700815978000201e9000200e00021
:10068000fcff3a0000000600020037000204e00010
:100690000b003200810178000002780030417800c0
:1006a000b14f5100f9ff32001000200014427800d1
:1006b000934f5200030031000080eb000000060061
:1006c0000000eb000000060000017800b141780056
:1006d000035978000304e000fcff3a000000060024
:1006e00080007800010178003104e000fdff3a004d
:0806f0000000510000000600ab
:020000040000fa
:1006f800312e000057610000746500007220000070
:1007080020200000322e00004461000074610000c7
:10071800003300002e5600006965000077200000b5
:1007280020200000203400002e4900006e660000e2
:100738006f000000312e00004f4e00002020000006
:100748002020000020200000322e00004f4600002c
:1007580046000000332e000041750000746f000051
:100768002020000020200000342e000042610000fc
:10077800636b0000003100002e4e00006f64000023
:100788006531000020200000322e00004e6f00006e
:100798006465000032000000332e00004e6f000038
:1007a800646500003320000020200000342e000083
:1007b80042610000636b0000003100002e5300000e
:1007c800686f000077200000202000002032000021
:1007d8002e4800006964000065000000332e000008
:1007e8004e2f0000412000002020000020200000a3
:1007f800342e000042610000636b000000200000fe
:1008080020200000202000002020000020200000e0
:1008180020200000202000002020000020000000f0
:1008280041750000746f00002d77000061740000ae
:10083800657200003a2000004f4e000000410000a1
:10084800757400006f2d000077610000746500006a
:10085800723a0000204f0000464600000053000096
:100868006f6900006c200000204c000075780000c3
:100878002020000020540000656d0000700000007a
:100888004600000044690000736300006f6e0000ba
:100898006e650000637400006564000000310000ac
:1008a8003d3e0000546f000070200000323d000003
:1008b8003e5400006f7000002d4d000064000000e1
:1008c800333d00003e4200006f7400002d4d0000d3
:1008d80064200000343d00003e4200006f740000b8
:1008e800000000005354000041520000545f000013
:1008f8005741000054450000525f000000520000bc
:10090800454200004f4f00005400000053450000ce
:100918004e4400005f44000041540000412c000098
:10092800300000000d0a00004461000074610000fe
:100938002031000020720000656300006569000036
:100948007665000064000000434d0000443e00004e
:100958000053000054520000454100004d5f000064
:100968004f500000454e000000440000495300006d
:10097800434f00004e4e0000454300005400000065
:100988000d0a000044490000534300004f4e000088
:100998004e45000043540000310000000d0a0000dd
:1009a80053540000554300004b3100002e2e000028
:1009b8002e20000042550000463a00000d0a0000b3
:1009c800005200002c3100000d00000045720000ac
:1009d8007200000025520000454200004f4f000001
:1009e80054250000000d00000a4400006174000056
:1009f800612000003220000072650000636500007d
:100a08006976000065640000000d00000a440000db
:100a180049530000434f00004e4e0000454300007c
:100a280054320000000d00000a5300005455000025
:100a3800434b0000322e00002e2e00002042000002
:100a4800554600003a0d00000a0000000d0a00009b
:100a5800446100007461000020330000207200002f
:100a680065630000656900007665000064000000a9
:100a78000d0a000044490000534300004f4e000097
:100a88004e45000043540000330000000d0a0000ea
:100a980053540000554300004b3300002e2e000035
:100aa8002e20000042550000463a00000d0a0000c2
:100ab800002c0000003100007c000000327c0000a7
:100ac800003300007c000000240000002424000003
:100ad800004600000d000000432c0000302c0000f0
:100ae8003830000031460000313200004243000037
:100af80034370000434400000d000000432c000080
:100b0800302c00003830000031460000313200003f
:100b18004235000038440000324600000d00000055
:100b2800432c0000302c0000383000003146000013
:100b380031320000424300003436000030360000f5
:100b48000d000000434d0000443e0000004b000033
:100b58002c3100000d000000444900005343000000
:100b68004f4e00004e45000043540000002d000089
:100b78002d2d00000d000000454e0000440000002f
:020000040000fa
:100b88000000fa00f0002000130a070014c0b300a8
:100b980013c0b3000041eb008040eb000040eb00c5
:100ba80074010700a00020000b0a070014c0b3005e
:100bb80013c0b3000041eb008040eb000040eb00a5
:100bc8006c01070050002000030a070014c0b3009e
:100bd80013c0b3000041eb008040eb000040eb0085
:100be80064010700a0002000fb0907000042eb0099
:100bf80013c0b3000041eb008040eb000040eb0065
:100c08005c01070050002000f30907000042eb00d8
:100c180013c0b3000041eb008040eb000040eb0044
:100c280054010700a0002000eb0907000042eb0078
:100c38008041eb000041eb0011c0b3000040eb0025
:100c48004c01070050002000e30907000042eb00b8
:100c58008041eb000041eb008040eb000040eb00de
:100c68004401070014c0b30013c0b30012c0b3009e
:100c780011c0b3000040eb003e0107005000200007
:100c8800d50907000042eb008041eb000041eb0072
:100c98008040eb000040eb00360107000042eb000b
:100ca80013c0b30012c0b3008040eb000040eb005b
:100cb8003001070050002000c70907000080fa0033
:100cc800000006000000fa000042eb008041eb0043
:100cd8000041eb008040eb000040eb0025010700dd
:100ce80014c0b3008041eb000041eb008040eb00f2
:100cf8000040eb001f01070050002000b609070064
:100d08000080fa00000006000000fa000042eb0034
:100d18008041eb000041eb008040eb000040eb001d
:100d2800140107000042eb0013c0b3000041eb00c0
:100d38008040eb000040eb000e010700500020004f
:100d4800a50907000080fa00000006000400fa0068
:100d5800000f7800110798001e007800e10f50007e
:100d680009003c001e0078000000e0000600350085
:100d78001e009000ef0f500003003c001e00900082
:100d88000000e00002003d000040eb0031003700a9
:100d98001e00780000f0a7000000ea000000ea004a
:100da8004f00de00004078000042eb008041eb007d
:100db8000041780011c0b3000040eb00ed000700cf
:100dc8001e0090006100600000f0a7000000ea002b
:100dd8000000ea004f00de00804178001e0090000d
:100de8006200600000f0a7000000ea000000ea00ce
:100df8004f00de00004178001e0090006400600093
:100e080000f0a7000000ea000000ea004f00de0042
:100e1800804078001e0090006800600000f0a70085
:100e28000000ea000000ea004f00de000040780001
:100e380003427800824178000141780080407800c0
:100e48000040eb00cb0007005000200062090700bb
:100e580010c0b3000080fa00000006000000fa008d
:100e68000042eb008041eb000041eb0011c0b300f1
:100e78000040eb00bf0007000042eb008041eb00a0
:100e88000041eb008040eb000040eb00b900070098
:100e980050002000500907000080fa0000000600fa
:100ea8000000fa000042eb008041eb0012c0b300e2
:100eb80011c0b3000040eb00ae0007000042eb0099
:100ec8008041eb000041eb008040eb000040eb006c
:100ed800a8000700500020003f0907000080fa0022
:100ee800000006000200fa00004f78001e4078005b
:100ef8000004e0000f0032000042eb008041eb00ec
:100f08000041eb008040eb000040eb009900070037
:100f180014c0b30013c0b30012c0b30011c0b300b3
:100f28000040eb0093000700500020002a0907004a
:100f38000e0037000042eb008041eb000041eb005f
:100f48008040eb000040eb008a0007000042eb0005
:100f58008041eb0012c0b30011c0b3000040eb00a9
:100f680084000700500020001b0907000080fa00d9
:100f7800000006000a00fa00400798000000eb0095
:100f880020079800730037000000eb003007980036
:100f98006d0037003e0090000000e00030003a008d
:100fa8002e009000ce009000008040001040780095
:100fb8008000fb00000820000080600000f0a7000f
:100fc8000000ea000000ea004f00de00004f780051
:100fd8002e009000ce009000008040001040780065
:100fe8008000fb00000420000080600000f0a700e3
:100ff8000000ea000000ea004f00de0010479800f9
:101008002e009000ce009000008040001040780034
:101018008000fb00000220000080600000f0a700b4
:101028000000ea000000ea004f00de0020479800b8
:101038002e009000ce009000008040001040780004
:101048000000fb007000600000f0a7000000ea004c
:101058000000ea004f00de00304798002f003700fc
:101068002e009000ce0090000080400010407800d4
:101078000000fb006800600000f0a7000000ea0024
:101088000000ea004f00de00004f78002e009000bc
:10109800ce00900000804000104078000000fb0067
:1010a8006400600000f0a7000000ea000000ea0009
:1010b8004f00de00104798002e009000ce009000f0
:1010c80000804000104078000000fb0062006000d3
:1010d80000f0a7000000ea000000ea004f00de0070
:1010e800204798002e009000ce009000008040001d
:1010f800104078000000fb006100600000f0a700cd
:101108000000ea000000ea004f00de0030479800c7
:101118002e0090000000e800200798003e42900052
:10112800ae4190001e4190009e40780010c0b30070
:101138001000070050002000a70807003e0090009c
:101148000000e800300798003e009000e10f5000d2
:1011580090ff34002e009000ce00900000804000e8
:10116800104078000004e00087ff3a000080fa0091
:10117800000006000600fa00004f780011479800aa
:101188002247980033479800444798001e80fb0088
:10119800610060004800dd0072348000f1ef2f002c
:1011a8008100610001007000703488001e409000ca
:1011b8000080fb004f00dd00d2338000f1ff2700e4
:1011c8008100610001007000d03388002e4090003b
:1011d8000080fb00610060004e00dd00d23380001b
:1011e800f1ff2b008100610001007000d0338800fe
:1011f8003e4090000080fb00610060004700dd0079
:1012080032338000f1f72f00810061000100700087
:10121800303388004e4090000080fb006100600081
:101228004a00dd0032338000f1bf2f0081006100e9
:1012380001007000303388008f26a8008f26a9008f
:101248000080fa00000006000600fa00004f78004f
:101258001147980022479800334798004447980060
:101268001e80fb00610060004800dd0072348000d1
:10127800f1ef2f00810061000100700070348800d8
:101288001e4090000080fb004f00dd00d23380003c
:10129800f1ff27008100610001007000d033880051
:1012a8002e4090000080fb00610060004e00dd00d1
:1012b800d2338000f1ff2b00810061000100700033
:1012c800d03388003e4090000080fb006100600041
:1012d8004700dd0032338000f1f72f008100610004
:1012e80001007000303388004e4090000080fb0001
:1012f800610060004a00dd0032338000f1bf2f003a
:101308008100610001007000303388008f26a8003a
:101318008f26a9000080fa00000006000000fa00ed
:101328000228ef0067fe0700c037280011ff0700fa
:10133800dbfe0700d03828000eff07000040eb0056
:10134800e8fe07000080fa00000006000000fa002e
:1013580010002000104088005afe0700e0392800dd
:1013680004ff0700cefe0700e03a280001ff07004f
:101378000080fa00000006000000fa0020002000ab
:10138800104088004ffe0700f03b2800f9fe0700d8
:10139800c3fe0700003d2800f6fe07000080fa00a3
:1013a800000006000000fa0030002000104088000d
:1013b80044fe0700103e2800eefe0700b8fe0700b6
:1013c800203f2800ebfe07000080fa00000006001e
:1013d8000000fa00400020001040880039fe070095
:1013e800103e2800e3fe0700adfe0700203f28005e
:1013f800e0fe07000080fa00000006000000fa0086
:1014080050002000104088002efe0700103e2800e3
:10141800d8fe0700a2fe0700203f2800d5fe0700df
:101428000080fa00000006000000fa008e66a8009e
:1014380030062000b04088000080fa000000060056
:101448000000fa008e66a9007b26a9000080fa0039
:10145800000006000000fa0008c8bf000004a2004f
:101468000080fb000040780008e8b70008c8bf000b
:101478000004e0000a00320078fe0700304028002f
:10148800bcfe070075fe070040412800b9fe0700b2
:10149800803e2000d0070700acff07000900370096
:1014a8006efe070030402800b2fe07006bfe070002
:1014b80030422800affe0700803e2000c607070024
:1014c800a2ff07000080fa00000006000200fa00f0
:1014d80080f52200104078000004e0001b00320074
:1014e800f0cdb300004f78000040eb0010479800a3
:1014f800f4fd0700304328009efe070068fe070041
:10150800e0f422009bfe070061002000100020008c
:101518000efe0700e0f422006500400095fe07007b
:10152800b10020001000200008fe0700e0f42200af
:101538006a0040008ffe07000e0078008dfe07004d
:10154800404428008bfe07000a003700ddfd070035
:10155800003a230087fe070051fe07006044280078
:1015680084fe07000968ef00803e20009a07070004
:101578008cff07000080fa00000006000200fa0055
:1015880070f62200104078000004e0001c003200d1
:10159800f0cdb300004f78000040eb0010479800f2
:1015a800c8fd07003043280072fe07003cfe070014
:1015b800e0f422006f0040006efe0700610020008a
:1015c80010002000e1fd0700e0f422007400400054
:1015d80068fe0700b100200010002000dbfd0700b6
:1015e800e0f422007900400062fe07000e00780057
:1015f80060fe0700404428005efe07000a0037002e
:10160800b0fd0700403b23005afe070024fe0700f8
:101618006044280057fe07000a68ef00803e20005b
:101628006d0707006aff07000080fa000000060047
:101638000200fa0080f52200104078000004e00063
:101648001c003200f0cdb300004f78000040eb00e2
:10165800104798009bfd07003043280045fe07000f
:101668000ffe0700e0f422007e00400041fe070064
:101678006100200010002000b4fd0700e0f4220003
:101688003002b0003bfe0700b1002000100020002f
:10169800aefd0700e0f422008002b00035fe07002e
:1016a8000e00780033fe07004044280031fe070092
:1016b8000a00370083fd0700803c23002dfe070049
:1016c800f7fd0700604428002afe07000b68ef00ba
:1016d800803e20004007070048ff07000080fa000e
:1016e800000006000000fa0076fd070030452800db
:1016f80020fe0700eafd0700404628001dfe0700ff
:10170800409c20003407070004ff07000080fa000f
:10171800000006000800fa000000eb00000f780047
:1017280010002000100798001e009000004078006c
:101738000043b00040479800e0c2b300504798000b
:101748000040eb006047980060822000c138230009
:10175800dbfb070060822000401fb000013a230035
:10176800d7fb070060822000803eb000413b230089
:10177800d3fb070061822000c05d2000008040008c
:10178800813c2300cefb07003c0037001e00780098
:101798000000e00016003a001e00900000407800ab
:1017a8000043b0004047980046fd0700bcfd070015
:1017b80064004700effd0700628220009e00780069
:1017c800401f20000088b900000078000000410098
:1017d800e8fd07001e0fe8001e0090000000e8006a
:1017e80010079800e02e2000fb06070023003700b2
:1017f80034fd07001e00900000407800f042b00061
:101808004047980064004700dafd07006282200024
:101818001e0078008000e900401f20000088b90001
:101828000000780000004100d2fd07009cfd070081
:101838001e009000004078000043b0004047980028
:1018480064004700cbfd0700628220009e007800fc
:10185800401f20000088b900000078000000410007
:10186800c4fd07001e0fe8001e0090000000e800fd
:1018780010079800e02e2000d70607009e00780089
:10188800401f20000088b90000007800e6004000f2
:101898000082200000804000104078000004e00032
:1018a800baff3a0007fd07001e00900000407800cc
:1018b800f042b0004047980064004700adfd0700c3
:1018c800628220001e0078008000e900401f20008e
:1018d8000088b9000000780000004100a5fd07005d
:1018e800e02e2000bc0607008cfe07000080fa00ee
:1018f800000006000400fa00304080000000e0000c
:101908000200320030408000c4050700a0382300e0
:10191800104078000004e0001200320081f8220034
:1019280060472800b20307000004e0000d00320001
:1019380080f82200570607008e66a80095e1a800e7
:10194800024020008000eb0080f8220045fb0700e1
:101958000000eb00409c8900a03823008040eb0089
:1019680001487800e1b4220030482800a0030700ad
:101978000004e000010032007f040700f04080000e
:101988000000e0000a003a0020f822001040780029
:101998000004a2000004e0009602320010002000bb
:1019a8009602070010002000f040880091023700de
:1019b800f0408000e10f5000ae003a002040800067
:1019c8000000e80020408800f0f72200104078006e
:1019d8000004e0002700320020f8220011c0b30004
:1019e80001487800b0f722008040eb0001487800f9
:1019f800c0f722008040eb0001487800d0f72200b1
:101a08008040eb000148780050f822001040780030
:101a18000004a2000004e0000700320050f8220091
:101a280011c0b30001487800400620006a0607008c
:101a3800a04828001e060700e0b42200c0030700e3
:101a48000004e0000b0032000428ef0000c8bf00cb
:101a58000004e0000200320060492800f305070096
:101a68002104070020002000640207005000200025
:101a7800f040880020f82200104078000004a200fe
:101a88000004e000060032000428ef0020f82200dd
:101a980011c0b3000148780010002000b702070009
:101aa800b0f72200104078000004e0000b0032007c
:101ab800e1b42200804a28004d0307000004e0003a
:101ac800060032000428ef00b0f722008040eb0047
:101ad8000148780020002000a8020700c0f7220073
:101ae800104078000004e0000b003200e1b422004e
:101af800003a23003e0307000004e000060032001d
:101b08000428ef00c0f722008040eb00014878006d
:101b18003000200099020700d0f72200104078001a
:101b28000004e00012003200e1b42200d04a28008c
:101b38002f0307000004e0000d0032000428ef0026
:101b4800d0f722008040eb000148780002402000d6
:101b58008000eb00e0b42200c2fa07000000eb00ae
:101b680010418800f0f7220011c0b3000148780046
:101b7800e1b42200904b28001d0307000004e00098
:101b88000e00320000c8bf000004e000020032006e
:101b9800404c2800a50507000428ef00024020005b
:101ba8008000eb00e0b42200aefa07000000eb0072
:101bb80010418800400020007002070040f8220011
:101bc800104078000004e0002100320000c8bf0087
:101bd8000004e00004003200204d280093050700af
:101be800e0b422009105070040f822008040eb0095
:101bf800014878001000200060020700a00f2000b4
:101c0800f5050700504e2800a9050700a000200090
:101c1800f1050700e1b42200a04e2800f4020700f5
:101c2800504e2800a205070000000000e1b4220081
:101c3800e04e2800ee0207000004e000fbff3a0037
:101c480010002000ed01070010002000f04088007f
:101c580021408000d0408000808f5000e501340092
:101c680040f8220011c0b300014878000428ef00b2
:101c7800e0013700f0408000e20f5000b4003a0065
:101c8800204080000000e80020408800f0f7220093
:101c9800104078000004e0002700320020f82200fd
:101ca80011c0b30001487800b0f722008040eb0073
:101cb80001487800c0f722008040eb000148780016
:101cc800d0f722008040eb000148780050f822004d
:101cd800104078000004a2000004e0000500320073
:101ce80050f8220011c0b30001487800a04828002d
:101cf8006f050700e0b42200110307000004e000ac
:101d08000d0032000428ef0000c8bf000004e00006
:101d180002003200704f280044050700800c2000a4
:101d2800ad0507007003070030002000b30107006d
:101d380050002000f040880020f822001040780071
:101d48000004a2000004e000060032000428ef00ae
:101d580020f8220011c0b3000148780010002000cc
:101d680006020700b0f72200104078000004e000e7
:101d78000b003200e1b42200804a28009c020700d0
:101d88000004e000060032000428ef00b0f722004b
:101d98008040eb000148780020002000f701070090
:101da800c0f72200104078000004e0000b00320069
:101db800e1b42200403b23008d0207000004e0004c
:101dc800060032000428ef00c0f722008040eb0034
:101dd8000148780040002000e8010700d0f7220001
:101de800104078000004e00012003200e1b4220044
:101df800d04a28007e0207000004e0000d003200ef
:101e08000428ef00d0f722008040eb00014878005a
:101e1800024020008000eb00e0b4220011fa070025
:101e28000000eb0010418800f0f7220011c0b30059
:101e380001487800e1b42200904b28006c020700aa
:101e48000004e0000e00320000c8bf000004e000fb
:101e58000200320090502800f40407000428ef0024
:101e6800024020008000eb00e0b42200fdf90700ea
:101e78000000eb001041880040002000bf0107006f
:101e880040f82200104078000004e00027003200eb
:101e980000c8bf000004e0000400320070512800b0
:101ea800e2040700e0b42200e004070040f8220042
:101eb8008040eb000148780010002000af010700c7
:101ec800a00f200044050700504e2800f804070022
:101ed800a000200040050700e1b42200a04e280021
:101ee80043020700504e2800f104070000000000dc
:101ef800e1b42200e04e28003d0207000004e000a3
:101f0800fbff3a00024020008000eb00e0b4220012
:101f1800d4f907000000eb001041880010002000f1
:101f28003601070010002000f040880021408000a2
:101f3800d0408000808f50002e01340040f82200ed
:101f480011c0b300014878000428ef0029013700c8
:101f5800f0408000e30f5000b7003a0020408000b6
:101f68000000e80020408800f0f7220010407800c8
:101f78000004e0002a00320020f8220011c0b3005b
:101f880001487800b0f722008040eb000148780053
:101f9800c0f722008040eb0001487800d0f722000b
:101fa8008040eb000148780050f82200104078008b
:101fb8000004a2000004e0000500320050f82200ee
:101fc80011c0b30001487800a0482800b8040700f1
:101fd800e0b422005a0207000004e00010003200ba
:101fe8000428ef0000c8bf000004e000020032002f
:101ff800a05228008d040700800c2000f60407007a
:1020080000f8220011c0b30001487800b6020700aa
:1020180010002000f900070050002000f040880060
:1020280020f82200104078000004a2000004e0001c
:10203800060032000428ef0020f8220011c0b30087
:1020480001487800100020004c010700b0f722007a
:10205800104078000004e0000b003200e1b42200d8
:10206800804a2800e20107000004e0000600320070
:102078000428ef00b0f722008040eb000148780008
:10208800200020003d010700c0f722001040780022
:102098000004e0000b003200e1b42200803c230081
:1020a800d30107000004e000060032000428ef0016
:1020b800c0f722008040eb00014878005000200063
:1020c8002e010700d0f72200104078000004e0003d
:1020d80012003200e1b42200d04a2800c4010700ef
:1020e8000004e0000d0032000428ef00d0f72200c1
:1020f8008040eb0001487800024020008000eb009f
:10210800e0b4220057f907000000eb0010418800f6
:10211800f0f7220011c0b30001487800e1b42200b2
:10212800904b2800b20107000004e0000e003200c6
:1021380000c8bf000004e00002003200c0532800bd
:102148003a0407000428ef00024020008000eb005a
:10215800e0b4220043f907000000eb0010418800ba
:10216800500020000501070040f8220010407800c8
:102178000004e0002700320000c8bf000004e000af
:1021880004003200a054280028040700e0b422000c
:102198002604070040f822008040eb000148780040
:1021a80010002000f5000700a00f20008a04070097
:1021b800504e28003e040700a000200086040700b7
:1021c800e1b42200a04e280089010700504e2800e3
:1021d8003704070000000000e1b42200e04e2800a8
:1021e800830107000004e000fbff3a0002402000e2
:1021f8008000eb00e0b422001af907000000eb00b1
:1022080010418800300020007c00070030002000ca
:10221800f040880021408000d0408000808f50002e
:102228007400340040f8220011c0b300014878005f
:102238000428ef006f003700f0408000e50f5000e1
:102248006c003a007b26a80020418000e10f500076
:1022580021003a000000eb00100798000c0037003e
:10226800e2f422001e0090006500b900000078002a
:10227800000041009e0090008100e80011079800ce
:10228800ea030700d0552800e80307001e0fe800fe
:102298001e0090006500b90080007800e0722200fe
:1022a80080804000008220000080400010407800bc
:1022b8000004e000030032001e009000e20f50000e
:1022c800e7ff3400f0552800d8030700200020005d
:1022d800f04088004700370020418000e20f50009e
:1022e80021003a0030002000100798000c00370049
:1022f800e2f422001e0090006500b900000078009a
:10230800000041009e0090008100e800110798003d
:10231800c6030700d0552800c40307001e0fe800b5
:102328001e0090006500b90080007800e07222006d
:10233800808040000082200000804000104078002b
:102348000004e000030032001e009000e50f50007a
:10235800e7ff340020562800b403070030002000af
:10236800f040880023003700204180000000e00092
:1023780020003a0060002000100798000c00370089
:10238800e2f422001e0090006500b9000000780009
:10239800000041009e0090008100e80011079800ad
:1023a800a2030700d0552800a00307001e0fe8006d
:1023b8001e0090006500b90080007800e0722200dd
:1023c800808040000082200000804000104078009b
:1023d8000004e000030032001e009000e80f5000e7
:1023e800e7ff340050562800900307001000200033
:1023f800f04088000080fa00000006000200fa00a1
:10240800000f78001e0078000000e000590032003c
:102418001e007800e10f50001b003a0020f822004f
:102428008040eb0001487800b0f7220011c0b300eb
:1024380001487800c0f7220011c0b30001487800b5
:10244800d0f7220011c0b30001487800f0f722004d
:102458008040eb000148780050f822008040eb00f3
:10246800014878000000eb0020418800024020006d
:102478008000eb00e0b422007af807000000eb00cf
:10248800104188003b0037001e007800e20f500022
:102498001b003a00100020002041880020f822008c
:1024a8008040eb0001487800b0f7220011c0b3006b
:1024b80001487800c0f7220011c0b3000148780035
:1024c800d0f7220011c0b30001487800f0f72200cd
:1024d8008040eb000148780050f822008040eb0073
:1024e80001487800024020008000eb00e0b42200a0
:1024f8005cf807000000eb00104188001d00370061
:102508001e007800e30f50001a003a002000200057
:102518002041880020f822008040eb000148780024
:10252800b0f7220011c0b30001487800c0f72200bc
:1025380011c0b30001487800d0f7220011c0b300e1
:1025480001487800f0f722008040eb00014878004d
:1025580050f822008040eb0001487800024020003b
:102568008000eb00e0b422003ef807000000eb001a
:10257800104188000080fa00000006000200fa00fe
:10258800000f78001e007800e10f500007003a00a5
:102598008056280046030700c00d20008e03070060
:1025a800a056280042030700170037001e007800d5
:1025b800e20f500003003a00d05628003c03070001
:1025c800110037001e007800e30f500003003a00a6
:1025d80000572800360307000b0037001e0078005c
:1025e800e40f500003003a00205828003003070089
:1025f800050037001e007800e50f500002003a0081
:10260800405928002a0307000080fa00000006004d
:10261800d200fa0000af98000000eb00000f78002d
:102628000000eb0010079800010037001e0fe800bb
:102638001e0078008ea890000080400010407800ae
:102648000004e000610032001e0078008ea89000af
:10265800008040009040780050c2b30080cf500006
:10266800f2ff3a005a0037000000eb0020079800fc
:10267800010037001e0fe8001e0078008ea89000a9
:10268800008040009040780050c2b30080cf5000d6
:10269800f8ff32000c0037001e0078008ea890006a
:1026a8000080400090407800680147002e009000ac
:1026b80000004100014878002e0090000000e8006a
:1026c800200798001e0fe8001e0078008ea89000d2
:1026d80000804000104078000004e000070032004d
:1026e8001e0078008ea8900000804000904078007e
:1026f80050c2b30080cf5000e7ff3a00e80047001f
:102708002e009000008040008040eb0001487800d7
:102718000000eb00300798000c003700e800470085
:102728003e0090000080400090407800c2062000e3
:102738000e0141003e009000000041000148780071
:102748003e0090000000e80030079800e8004700cd
:102758003e0090000080400090407800c0c2b30066
:1027680080cf5000edff3a00c10620008e80400067
:102778003e009000008040008040eb000148780057
:102788000e4890000004e000110032000e4890004e
:10279800ed4f50000e003200628220009e00900033
:1027a800401f20000088b9000000780000004100a8
:1027b8009e0090008100e80011079800c1062000e3
:1027c8008e804000bef707000100370000000000bf
:1027d8001e0078008ea8900000804000104078000d
:1027e8000004e000a0ff3a000080fa0000000600a4
:1027f8000e00fa00889fbe008a1f780050079800d4
:10280800610798000f0478000f00780080047800b2
:102818005e009000b0f70700800078008100e900b2
:10282800310798000000e8000000e8000000d1002f
:10283800800040000f007800818747000000e80012
:102848000000d10000004000400798005e009000a2
:10285800a1f707000000e900000f78000000eb0076
:1028680020079800240037000000eb0010079800ac
:102878000d0037009e0090002e0090000080400060
:10288800ee00900000804000904078004e019000db
:102898001e00900000004100014878001e009000d2
:1028a8000000e800100798001e0590005e009000e8
:1028b80089f70700800f5500eeff3900ce00900021
:1028c8001e009000008040008040eb000148780026
:1028d8004e009000de00900069f707000000e0005d
:1028e80002003a0010c0b3000f0037002e0090001d
:1028f8000000e800200798001e007800ee00900015
:1029080000804000104078000080fb000000ea00d2
:102918004f00de00004078001e0fe8000004e000d1
:10292800d1ff3a000040eb0089077800880778005b
:102938004f0578004f04be000080fa000000060032
:102948000c00fa00500798000000eb0040079800c0
:102958000000eb00000f78000c003700e032220086
:102968009e004000008220000080400090407800d7
:10297800c0c2b30080cf500003003a004e00900060
:102988000000e800400798001e0fe800e03222002f
:102998009e00400000822000008040001040780027
:1029a8000004e000edff3a004e009000e30f5000f5
:1029b800020032000040eb00490037000000eb0045
:1029c80020079800204180006300b90000007800cb
:1029d800000f78003b0037000000eb00300798003c
:1029e800ae00900011079800290037009e00900063
:1029f800e0322200808040000082200000804000f9
:102a080090407800f0c2b30080cf50001a00340024
:102a18009e009000e032220080804000008220006a
:102a2800008040009040780090c3b30080cf5000f1
:102a380011003c009e009000e0322200808040009f
:102a48000082200000804000104178001e007800bd
:102a58006500b900800078003e009000808040004a
:102a6800e0f4220000804000024878003e00900018
:102a78000000e800300798002e0090000000e800f1
:102a8800200798001e0090000000e800100798003a
:102a98009e009000e03222008080400000822000ea
:102aa8000080400090407800c0c2b30080cf500042
:102ab800ceff3a002e0090000000e80020079800a2
:102ac8001e0fe800204180000000e8006300b90004
:102ad800000078009e0f5000bfff3c0010c0b300fc
:102ae8000080fa00000006000000fa001000200034
:102af800a2fe070000000000e1b42200605a28008e
:102b08003bff07000004a2000004e000faff3a00bf
:102b1800b05a2800e601070000000000e1b42200d6
:102b2800005b280032ff07000004a2000004e00058
:102b3800faff3a00b05b2800dd0107000000000042
:102b4800e1b42200005c280029ff07000004a2006d
:102b58000004e000faff3a00024020008000eb0089
:102b6800e0b42200bff607000000eb001041880027
:102b78000080fa00000006000200fa001e28ef009c
:102b880020f822008040eb0001487800f0f722008e
:102b98008040eb0001487800b0f7220011c0b30074
:102ba80001487800c0f7220011c0b300014878003e
:102bb800d0f7220011c0b3000148780060f8220065
:102bc80011c0b3000148780050f822008040eb00a3
:102bd80001487800024020008000eb00e0b42200a9
:102be800a0f607000000eb00000f78000a0037008d
:102bf8009e007800401f20000088b90080007800ff
:102c08006082200000804000421f20008000eb000e
:102c180094f607001e0fe8001e007800ee0f500023
:102c2800f3ff34000000eb00204188000000eb00b7
:102c3800104188000080fa00000006000000fa0039
:102c48000800070011000700520007005f00070096
:102c58006a000700760007008e0007000080fa006f
:102c6800000006000000fa007a26ef000080eb0062
:102c7800b03388007e26ef009266a9008a66a90014
:102c88007726a9000080fa00000006000000fa007c
:102c9800024020008000eb0080f8220071f6070057
:102ca8000000eb00409c8900a03823008040eb0026
:102cb800014878009823ef009a23ef0076e6a900f0
:102cc8007706a800d13e8000f00f280080806000c1
:102cd8000030200001007000d03e8800a13d800037
:102ce80000fc2f00008060000030a000a03d88009c
:102cf8008960a90061058000f0ff280080806000dd
:102d08000000230001007000600588009960a80099
:102d180090012000001d880099e3a8009b43a800ab
:102d2800ae23ef00b023ef00b13e8000f00f280083
:102d3800808060000050200001007000b03e8800d4
:102d4800b13d800000fc2f00008060000010a00052
:102d5800b03d88007666a9007646a8008bc0a90019
:102d6800b1058000f08f2f008080600000302000c7
:102d780001007000b00588009bc0a80090012000e9
:102d8800b01d8800afe3a800b143a8000080fa0096
:102d9800000006000000fa008b06a9008b26a90097
:102da80077e6a90077c6a90062e6a9006346a900ec
:102db80073f70700c3f7070010c0b30049f807000e
:102dc80056f907000080fa00000006000000fa002b
:102dd8007686a800813c8000f00f2c0000806000ff
:102de80000a0a000803c88008220a8009a80a8004b
:102df8008a80a9000080fa00000006000000fa009e
:102e08009021ef009421ef0000012000900c880031
:102e1800a10c80000003200001007000a00c8800b5
:102e28008860a9009860a8000080fa0000000600e9
:102e38000000fa0077a6a8007786a8007766a800a1
:102e48007746a8008346a8008366a8008386a80062
:102e580083a6a8008746a8008766a8008786a800da
:102e680087a6a8005fe6a8008426ef008a60a9006c
:102e780081058000f0ff28008080600000002300aa
:102e880001007000800588009a60a8000080fa00a0
:102e9800000006000200fa000000eb00000f7800b6
:102ea8000a0037009e007800401f20000088b90003
:102eb800800078006082200000804000421f2000cf
:102ec8008000eb00e7f507001e0fe8001e00780001
:102ed800ee0f5000f3ff34000000eb00000f780005
:102ee8000a0037009e007800401f20000088b900c3
:102ef800800078002057220000804000421f2000f8
:102f08008000eb00d7f507001e0fe8001e007800d0
:102f1800e20f5000f3ff34000000eb00000f7800d0
:102f2800090037001e0078006500b90080007800ad
:102f3800e0f4220000804000520020008000eb00f6
:102f4800c8f507001e0fe8001e007800e80f5000c3
:102f5800f4ff3400024020008000eb00e0b42200bf
:102f6800c0f507000082200011c0b30001487800b6
:102f7800e0f722008040eb000148780010f82200ba
:102f88008040eb000148780000f822008040eb0008
:102f980001487800f0f722008040eb0001487800f3
:102fa80020f822008040eb0001487800b0f72200aa
:102fb80011c0b30001487800c0f7220011c0b30067
:102fc80001487800d0f7220011c0b300014878000a
:102fd80060f8220011c0b3000148780030f82200e0
:102fe8008040eb00014878000000eb002041880099
:102ff8000000eb001041880050f822008040eb00f0
:103008000148780040f822008040eb000148780031
:103018001e28ef000080fa00000006000200fa00f7
:10302800000f780010408000e20f50003600320098
:10303800e20f500005003c000000e0000a003200ea
:10304800e10f50001c00320075003700e40f5000fb
:1030580050003200e40f50003f003500e50f5000eb
:103068005b0032006e0037001e007800e10f500050
:1030780002003a00b5f80700690037001e00780022
:10308800e20f500002003a00bbf807006400370066
:103098001e007800e30f500002003a009df9070077
:1030a8005f0037001e007800e40f500057003a0018
:1030b8008cf907005a0037001e007800e10f500015
:1030c80002003a00d8f80700550037001e007800c3
:1030d800e20f500002003a00d9f80700500037000c
:1030e8001e007800e30f500002003a00d9f80700ec
:1030f8004b0037001e007800e40f500045003a00ee
:1031080086f80700460037001e007800e10f5000df
:1031180002003a00a3f80700410037001e007800bb
:10312800e20f500002003a00a9f807003c003700ff
:103138001e007800e30f500002003a00aff80700c5
:10314800370037001e007800e40f500033003a00c3
:1031580072f80700320037001e007800e10f5000b7
:1031680004003a00d9f8070010c0b30009e8b70016
:103178002b0037001e007800e20f500003003a00d1
:103188000968ef0087f80700250037007af807007c
:10319800230037001e007800e10f500004003a00b9
:1031a800f6f8070010c0b3000ae8b7001c003700a3
:1031b8001e007800e20f500003003a000a68ef0092
:1031c80083f80700160037006bf807001400370073
:1031d8001e007800e10f500004003a0014f90700bf
:1031e80010c0b3000be8b7000d0037001e007800d0
:1031f800e20f500003003a000b68ef007ff8070069
:10320800070037005cf807000500370000000000e1
:103218000300370000000000010037000000000034
:103228000628ef000080fa00000006000400fa00fb
:10323800100798000000eb00000f78000d00370021
:1032480000000000d11c80000010200000806000f9
:103258000000e000fbff32001e0078009e00900096
:1032680000804000104078000000fb00e01c88004f
:103278001e0fe8001e0078009e00900000804000ad
:10328800104078000004e000edff3a000080fa00ea
:10329800000006000200fa00000f7800a0002000dd
:1032a800a04088001628ef000080fa000000060001
:1032b8000400fa00100798000000eb00000f7800e7
:1032c8000d00370000000000811d80000010200064
:1032d800008060000000e000fbff32001e00780064
:1032e8009e00900000804000104078000000fb0025
:1032f800901d88001e0fe8001e0078009e009000b8
:1033080000804000104078000004e000edff3a0023
:083318000080fa00000006002d
:020000040000fa
:103320008c33000050000000820000003830310073
:10333000463132004243340037423600000000007c
:1033400000000000000038003031460031324200f9
:103350004334370043440000000000000000000038
:1033600000383000314631003242350038443200f6
:10337000460000000000000000000000383031006e
:10338000463132004243340036303600000000003f
:103390000000000000000000200800006827000076
:1033a00080000000000800001a00000080000000fb
:1033b0001a08000004000000820000002c01e80050
:1033c00003000000882f00000404000080000000bb
:1033d0001e08000002000000800000000000000045
:020000040000fa
:1033e0000600fa00200798002e0090000000400020
:1033f000000f78000a003700c01120001007980065
:10340000030037001e0090000000e900100798003c
:103410001e0090000000e000faff3c001e0fe900d3
:103420001e0078000000e000f3ff3c000080fa007e
:10343000000006000000fa0002fe070000f822006b
:10344000104078000004e0000500320000c8bf0012
:103450000004e00002003200401f2000e0ff0700ef
:1034600020032000deff070024f90700f3ff3700e8
:020000040000fa
:020000040005f5
:045e0000ffff0000a0
:020000040000fa
:020000040005f5
:045e2000ffffff0081
:020000040000fa
:020000040005f5
:045e3000f8ffff0078
:020000040000fa
:020000040005f5
:045e3800b7ffff00b1
:020000040000fa
:020000040005f5
:045e40009fffff00c1
:020000040000fa
:020000040005f5
:045e4800ffffff0059
:020000040000fa
:020000040005f5
:045e5000dfffff0071
:020000040000fa
:020000040005f5
:045e5800ffffff0049
:00000001FF
