:020000040000fa
:080000000001040000000000f3
:020000040000fa
:04000800a202000050
:020000040000fa
:04000c00a20200004c
:020000040000fa
:04001000a202000048
:020000040000fa
:04001400a202000044
:020000040000fa
:04001800a202000040
:020000040000fa
:04001c00a20200003c
:020000040000fa
:04002000a202000038
:020000040000fa
:04002400a202000034
:020000040000fa
:04002800a202000030
:020000040000fa
:04002c00a20200002c
:020000040000fa
:04003000a202000028
:020000040000fa
:04003400a202000024
:020000040000fa
:04003800a202000020
:020000040000fa
:04003c00a20200001c
:020000040000fa
:04004000a202000018
:020000040000fa
:04004400a202000014
:020000040000fa
:04004800a202000010
:020000040000fa
:04004c00a20200000c
:020000040000fa
:04005000a202000008
:020000040000fa
:0400540004020000a2
:020000040000fa
:04005800a202000000
:020000040000fa
:04005c00a2020000fc
:020000040000fa
:04006000a2020000f8
:020000040000fa
:04006400a2020000f4
:020000040000fa
:04006800a2020000f0
:020000040000fa
:04006c00a2020000ec
:020000040000fa
:04007000a2020000e8
:020000040000fa
:040074005602000030
:020000040000fa
:04007800a2020000e0
:020000040000fa
:04007c00a2020000dc
:020000040000fa
:04008000a2020000d8
:020000040000fa
:04008400a2020000d4
:020000040000fa
:04008800a2020000d0
:020000040000fa
:04008c00a2020000cc
:020000040000fa
:04009000a2020000c8
:020000040000fa
:04009400a2020000c4
:020000040000fa
:04009800a2020000c0
:020000040000fa
:04009c00a2020000bc
:020000040000fa
:0400a0001802000042
:020000040000fa
:0400a400a2020000b4
:020000040000fa
:0400a800a2020000b0
:020000040000fa
:0400ac00a2020000ac
:020000040000fa
:0400b000a2020000a8
:020000040000fa
:0400b400a2020000a4
:020000040000fa
:0400b800a2020000a0
:020000040000fa
:0400bc00a20200009c
:020000040000fa
:0400c000a202000098
:020000040000fa
:0400c400a202000094
:020000040000fa
:0400c800a202000090
:020000040000fa
:0400cc00a20200008c
:020000040000fa
:0400d000a202000088
:020000040000fa
:0400d400a202000084
:020000040000fa
:0400d800a202000080
:020000040000fa
:0400dc00a20200007c
:020000040000fa
:0400e000a202000078
:020000040000fa
:0400e400a202000074
:020000040000fa
:0400e800a202000070
:020000040000fa
:0400ec00a20200006c
:020000040000fa
:0400f000a202000068
:020000040000fa
:0400f400a202000064
:020000040000fa
:0400f800a202000060
:020000040000fa
:0400fc00a20200005c
:020000040000fa
:04010000a202000057
:020000040000fa
:04010400a202000053
:020000040000fa
:04010800a20200004f
:020000040000fa
:04010c00a20200004b
:020000040000fa
:04011000a202000047
:020000040000fa
:04011400a202000043
:020000040000fa
:04011800a20200003f
:020000040000fa
:04011c00a20200003b
:020000040000fa
:04012000a202000037
:020000040000fa
:04012400a202000033
:020000040000fa
:04012800a20200002f
:020000040000fa
:04012c00a20200002b
:020000040000fa
:04013000a202000027
:020000040000fa
:04013400a202000023
:020000040000fa
:04013800a20200001f
:020000040000fa
:04013c00a20200001b
:020000040000fa
:04014000a202000017
:020000040000fa
:04014400a202000013
:020000040000fa
:04014800a20200000f
:020000040000fa
:04014c00a20200000b
:020000040000fa
:04015000a202000007
:020000040000fa
:04015400a202000003
:020000040000fa
:04015800a2020000ff
:020000040000fa
:04015c00a2020000fb
:020000040000fa
:04016000a2020000f7
:020000040000fa
:04016400a2020000f3
:020000040000fa
:04016800a2020000ef
:020000040000fa
:04016c00a2020000eb
:020000040000fa
:04017000a2020000e7
:020000040000fa
:04017400a2020000e3
:020000040000fa
:04017800a2020000df
:020000040000fa
:04017c00a2020000db
:020000040000fa
:04018000a2020000d7
:020000040000fa
:04018400a2020000d3
:020000040000fa
:04018800a2020000cf
:020000040000fa
:04018c00a2020000cb
:020000040000fa
:04019000a2020000c7
:020000040000fa
:04019400a2020000c3
:020000040000fa
:04019800a2020000bf
:020000040000fa
:04019c00a2020000bb
:020000040000fa
:0401a000a2020000b7
:020000040000fa
:0401a400a2020000b3
:020000040000fa
:0401a800a2020000af
:020000040000fa
:0401ac00a2020000ab
:020000040000fa
:0401b000a2020000a7
:020000040000fa
:0401b400a2020000a3
:020000040000fa
:0401b800a20200009f
:020000040000fa
:0401bc00a20200009b
:020000040000fa
:0401c000a202000097
:020000040000fa
:0401c400a202000093
:020000040000fa
:0401c800a20200008f
:020000040000fa
:0401cc00a20200008b
:020000040000fa
:0401d000a202000087
:020000040000fa
:0401d400a202000083
:020000040000fa
:0401d800a20200007f
:020000040000fa
:0401dc00a20200007b
:020000040000fa
:0401e000a202000077
:020000040000fa
:0401e400a202000073
:020000040000fa
:0401e800a20200006f
:020000040000fa
:0401ec00a20200006b
:020000040000fa
:0401f000a202000067
:020000040000fa
:0401f400a202000063
:020000040000fa
:0401f800a20200005f
:020000040000fa
:0401fc00a20200005b
:020000040000fa
:10020000eff922000e7f24000e018800000000009c
:10021000000020000000e000020032000001200089
:100220002002880014000700c80007000000e0005a
:1002300003003a00a0502100010020000200370016
:100240000000200001002000810f7000010032003a
:1002500014000700000020000000e000020032004f
:100260000000020000000000b614020000000000c0
:100270000040da000000fe004440a900202c2000cd
:100280000000e00003003200002020009001880000
:100290004440a800000006008a1f78008b1f7800e9
:1002a00000000600a1028800800478000000eb0036
:1002b0001f003700e284440054a0b4009905ba003e
:1002c000e284440054a0b4009906ba00e2844400d9
:1002d00054a0b4000006eb00476fde00fd07b2003b
:1002e000ae018800636ce10003003a00eaff0700fa
:1002f0000000eb000e003700606ce10008003a00df
:10030000004deb000a05e800020039003420ec0043
:100310000af0a0008b05e900f9ff3e000400370059
:100320006168e100010032000086eb000b0007006d
:1003300019c7ba001905ba000e04e00003003a001c
:100340000a00e000dbff3a0000000600fe07b200f2
:10035000ae0288008a047800f5ff37000cd0a300b5
:10036000e20f4d001c00390089027800354dba00bb
:100370000a05e800020039003420ec000af0a00071
:100380008b05e9000f003200254dba000a05e80090
:10039000020039003420ec000af0a0008b05e900cf
:1003a000080032000c00e0000600320015cdba0053
:1003b0000a05e800020039003420ec000af0a00031
:1003c0008b05e9008984e80054a0b4000b00e0002c
:1003d000e2ff3a00000006009902ba00055d7800cd
:1003e0008b05e900f7ff3200c82ade00055d7800c2
:1003f0008b05e900f3ff32000c00e000f1ff320052
:1004000019ddba00eeff3700801f78000200fa0005
:10041000f01c8000004f78001e00fb00e01c8800ec
:100420008960a9000080fa004f00780000400600b3
:10043000809fbe000200fa00a01d8000004f7800df
:100440001e4078000004e00014003200814080006b
:10045000f03f2000808f500002003a000000eb00c7
:100460008040880080408000c1b3220081004000ad
:100470009e4878000000e8008040880081408000ad
:10048000c0b32200008040008040eb0001487800ab
:1004900000f6220011c0b300014878008bc0a9000b
:1004a0000080fa004f00be0000400600809fbe00a2
:1004b0000000fa002134800000002200008060006b
:1004c0000000e000030032001000200020408800ff
:1004d00017003700213480000000210000806000f8
:1004e0000000e000030032002000200020408800cf
:1004f0000f00370021348000008020000080600061
:100500000000e0000300320030002000204088009e
:100510000700370021348000004020000080600088
:100520000000e0000200320040002000204088006f
:100530008426ef008a60a9000080fa004f00be0008
:10054000004006000040da000000fe000000050048
:100550008001780002003700815978000201e9002b
:100560000200e000fcff3a00000006000200370035
:100570000204e0000b0032008101780000027800e4
:1005800030417800b14f5100f9ff320010002000d7
:1005900014427800934f5200030031000080eb00ba
:1005a000000006000000eb000000060000017800db
:1005b000b1417800035978000304e000fcff3a00e1
:1005c0000000060080007800010178003104e0009e
:0c05d000fdff3a00000051000000060092
:020000040000fa
:1005dc00312e00005761000074650000722000008d
:1005ec0020200000322e00004461000074610000e5
:1005fc00003300002e5600006965000077200000d3
:10060c0020200000203400002e4900006e660000ff
:10061c006f000000312e00004f4e00002020000023
:10062c002020000020200000322e00004f46000049
:10063c0046000000332e000041750000746f00006e
:10064c002020000020200000342e00004261000019
:10065c00636b0000003100002e530000686f000037
:10066c007720000020200000203200002e480000df
:10067c006964000065000000332e00004e2f00005e
:10068c00412000002020000020200000342e00001b
:10069c0042610000636b0000003100002e5300002b
:1006ac00686f000077200000322e0000436f0000be
:1006bc006e6e00006563000074000000332e0000b5
:1006cc00436f00006e6e00003f20000020200000f1
:1006dc00342e000042610000636b0000003100000a
:1006ec002e560000696500007720000020200000d5
:1006fc00203200002e4e00002f410000003300007d
:10070c002e4900006e6600006f20000020200000c3
:10071c00203400002e420000616300006b000000da
:10072c00312e00004e6500007431000020200000c6
:10073c0020200000322e00004e65000074320000b4
:10074c00003300002e4e00006574000033200000c2
:10075c0020200000203400002e42000061630000c5
:10076c006b00000020200000202000002020000052
:10077c00202000002020000020200000202000006d
:10078c00202000000057000061740000657200001a
:10079c00696e000067200000456e00006162000079
:1007ac006c65000064000000576100007465000077
:1007bc007220000073680000757400002064000053
:1007cc006f7700006e21000000410000757400007e
:1007dc006f2d00007761000074650000723a000014
:1007ec00204f00004e00000041750000746f0000a7
:1007fc002d77000061740000657200003a20000043
:10080c004f46000046000000536f0000696c00006a
:10081c00202000004c7500007820000020200000f3
:10082c00546500006d70000000460000004200009e
:10083c006c750000657400006f6f00007468000038
:10084c000044000069730000636f00006e6e0000ce
:10085c00656300007465000064000000312e000028
:10086c00204e000065740000776f0000726b000072
:10087c0031000000322e0000204e00006574000094
:10088c00776f0000726b000032000000332e000006
:10089c00204e000065740000776f0000726b000042
:1008ac00330000004e650000747700006f7200008a
:1008bc006b20000031000000736500006c650000c7
:1008cc0063740000656400002e2e00002e000000f2
:1008dc004e650000747700006f7200006b20000002
:1008ec00320000004e650000747700006f7200004b
:1008fc006b20000033000000436f00006d690000a6
:10090c006e670000205300006f6f00006e00000047
:10091c00313d00003e5400006f700000203200009a
:10092c003d3e0000546f0000702d00004d6400002f
:10093c00003300003d3e0000426f0000742d0000ab
:10094c004d640000203400003d3e0000426f00006a
:10095c00740000000d0a00002d2d00004461000001
:10096c00746100002042000075660000666500009e
:10097c00722d00002d0000000d0a0000000d00007b
:10098c000a2d00002d2d00002d2d00002d2d000016
:10099c002d2d00002d2d00002d2d00002d2d0000e3
:1009ac000d0a0000002d00002d4200006c750000a7
:1009bc00657400006f6f000074680000204d00002b
:1009cc006f640000756c0000657300002d2d000035
:1009dc000d0a0000002d00002d2d00002d500000f0
:1009ec00616300006b65000074200000427500001c
:1009fc0066660000657200002d2d00002d2d000094
:100a0c000d0a000000520000454200004f4f00004c
:100a1c005400000044490000534300004f4e0000b6
:100a2c004e45000043540000004300004d440000bc
:100a3c003e0000005354000052450000414d0000a0
:100a4c005f4f0000504500004e0000005345000071
:100a5c004e4400005f44000041540000412c000053
:100a6c00300000000d0a00002d2d0000466900002a
:100a7c007273000074200000446100007461000077
:100a8c002d2d00000d0a000000530000454e000003
:100a9c00445f000044410000544100002c31000030
:100aac00004100004f4b0000000d00000a2d00001b
:100abc002d530000656300006f6e00006420000081
:100acc0044610000746100002d2d00000d0a00002f
:100adc000000000024000000242400000046000058
:100aec000d000000432c0000302c0000000d000015
:100afc00000d00000a4900004e2000004443000095
:100b0c00004300004d4400003e0000004b2c000050
:100b1c00310d00000044000049530000434f000019
:100b2c004e4e000045430000540000002d2d0000e7
:100b3c002d0d0000004500004e440000000d00008b
:100b4c000a4f00005554000020440000430d0000e3
:040b5c000a0000008b
:020000040000fa
:100b60000000fa00f0002000c907070014c0b3001d
:100b700013c0b3000041eb008040eb000040eb00ed
:100b800074010700a0002000c107070014c0b300d3
:100b900013c0b3000041eb008040eb000040eb00cd
:100ba0006c01070050002000b907070014c0b30013
:100bb00013c0b3000041eb008040eb000040eb00ad
:100bc00064010700a0002000b10707000042eb000d
:100bd00013c0b3000041eb008040eb000040eb008d
:100be0005c01070050002000a90707000042eb004d
:100bf00013c0b3000041eb008040eb000040eb006d
:100c000054010700a0002000a10707000042eb00ec
:100c10008041eb000041eb0011c0b3000040eb004d
:100c20004c01070050002000990707000042eb002c
:100c30008041eb000041eb008040eb000040eb0006
:100c40004401070014c0b30013c0b30012c0b300c6
:100c500011c0b3000040eb003e010700500020002f
:100c60008b0707000042eb008041eb000041eb00e6
:100c70008040eb000040eb00360107000042eb0033
:100c800013c0b30012c0b3008040eb000040eb0083
:100c900030010700500020007d0707000080fa00a7
:100ca000000006000000fa000042eb008041eb006b
:100cb0000041eb008040eb000040eb002501070005
:100cc00014c0b3008041eb000041eb008040eb001a
:100cd0000040eb001f010700500020006c070700d8
:100ce0000080fa00000006000000fa000042eb005d
:100cf0008041eb000041eb008040eb000040eb0046
:100d0000140107000042eb0013c0b3000041eb00e8
:100d10008040eb000040eb000e0107005000200077
:100d20005b0707000080fa00000006000400fa00dc
:100d3000000f7800110798001e007800e10f5000a6
:100d400009003c001e0078000000e00006003500ad
:100d50001e009000ef0f500003003c001e009000aa
:100d60000000e00002003d000040eb0031003700d1
:100d70001e00780000f0a7000000ea000000ea0072
:100d80004f00de00004078000042eb008041eb00a5
:100d90000041780011c0b3000040eb00ed000700f7
:100da0001e0090006100600000f0a7000000ea0053
:100db0000000ea004f00de00804178001e00900035
:100dc0006200600000f0a7000000ea000000ea00f6
:100dd0004f00de00004178001e00900064006000bb
:100de00000f0a7000000ea000000ea004f00de006b
:100df000804078001e0090006800600000f0a700ae
:100e00000000ea000000ea004f00de000040780029
:100e100003427800824178000141780080407800e8
:100e20000040eb00cb00070050002000180707002f
:100e300010c0b3000080fa00000006000000fa00b5
:100e40000042eb008041eb000041eb0011c0b30019
:100e50000040eb00bf0007000042eb008041eb00c8
:100e60000041eb008040eb000040eb00b9000700c0
:100e700050002000060707000080fa00000006006e
:100e80000000fa000042eb008041eb0012c0b3000a
:100e900011c0b3000040eb00ae0007000042eb00c1
:100ea0008041eb000041eb008040eb000040eb0094
:100eb000a800070050002000f50607000080fa0097
:100ec000000006000200fa00004f78001e40780083
:100ed0000004e0000f0032000042eb008041eb0014
:100ee0000041eb008040eb000040eb009900070060
:100ef00014c0b30013c0b30012c0b30011c0b300dc
:100f00000040eb009300070050002000e0060700bf
:100f10000e0037000042eb008041eb000041eb0087
:100f20008040eb000040eb008a0007000042eb002d
:100f30008041eb0012c0b30011c0b3000040eb00d1
:100f40008400070050002000d10607000080fa004e
:100f5000000006000a00fa00400798000000eb00bd
:100f600020079800730037000000eb00300798005e
:100f70006d0037003e0090000000e00030003a00b5
:100f80002e009000ce0090000080400010407800bd
:100f90008000fb00000820000080600000f0a70037
:100fa0000000ea000000ea004f00de00004f780079
:100fb0002e009000ce00900000804000104078008d
:100fc0008000fb00000420000080600000f0a7000b
:100fd0000000ea000000ea004f00de001047980021
:100fe0002e009000ce00900000804000104078005d
:100ff0008000fb00000220000080600000f0a700dd
:101000000000ea000000ea004f00de0020479800e0
:101010002e009000ce00900000804000104078002c
:101020000000fb007000600000f0a7000000ea0074
:101030000000ea004f00de00304798002f00370024
:101040002e009000ce0090000080400010407800fc
:101050000000fb006800600000f0a7000000ea004c
:101060000000ea004f00de00004f78002e009000e4
:10107000ce00900000804000104078000000fb008f
:101080006400600000f0a7000000ea000000ea0031
:101090004f00de00104798002e009000ce00900018
:1010a00000804000104078000000fb0062006000fb
:1010b00000f0a7000000ea000000ea004f00de0098
:1010c000204798002e009000ce0090000080400045
:1010d000104078000000fb006100600000f0a700f5
:1010e0000000ea000000ea004f00de0030479800f0
:1010f0002e0090000000e800200798003e4290007b
:10110000ae4190001e4190009e40780010c0b30098
:1011100010000700500020005d0607003e00900010
:101120000000e800300798003e009000e10f5000fa
:1011300090ff34002e009000ce0090000080400010
:10114000104078000004e00087ff3a000080fa00b9
:10115000000006000600fa00004f780011479800d2
:101160002247980033479800444798001e80fb00b0
:10117000610060004800dd0072348000f1ef2f0054
:101180008100610001007000703488001e409000f2
:101190000080fb004f00dd00d2338000f1ff27000c
:1011a0008100610001007000d03388002e40900063
:1011b0000080fb00610060004e00dd00d233800043
:1011c000f1ff2b008100610001007000d033880026
:1011d0003e4090000080fb00610060004700dd00a1
:1011e00032338000f1f72f008100610001007000b0
:1011f000303388004e4090000080fb0061006000aa
:101200004a00dd0032338000f1bf2f008100610011
:1012100001007000303388008f26a8008f26a900b7
:101220000080fa00000006000600fa00004f780077
:101230001147980022479800334798004447980088
:101240001e80fb00610060004800dd0072348000f9
:10125000f1ef2f0081006100010070007034880000
:101260001e4090000080fb004f00dd00d233800064
:10127000f1ff27008100610001007000d033880079
:101280002e4090000080fb00610060004e00dd00f9
:10129000d2338000f1ff2b0081006100010070005b
:1012a000d03388003e4090000080fb006100600069
:1012b0004700dd0032338000f1f72f00810061002c
:1012c00001007000303388004e4090000080fb0029
:1012d000610060004a00dd0032338000f1bf2f0062
:1012e0008100610001007000303388008f26a80063
:1012f0008f26a9000080fa00000006000000fa0016
:101300000028ef0067fe0700e02e280011ff07000d
:10131000dbfe0700f02f28000eff07000040eb0067
:10132000e8fe07000080fa00000006000000fa0056
:1013300010002000004088005afe070000312800fd
:1013400004ff0700cefe07000032280001ff07005f
:101350000080fa00000006000000fa0020002000d3
:10136000004088004ffe070010332800f9fe0700f8
:10137000c3fe070020342800f6fe07000080fa00b4
:10138000000006000000fa00300020000040880045
:1013900044fe070030352800eefe0700b8fe0700c7
:1013a00040362800ebfe07000080fa00000006002f
:1013b0000000fa00400020000040880039fe0700cd
:1013c00050372800e3fe0700adfe07005038280024
:1013d000e0fe07000080fa00000006000000fa00ae
:1013e00050002000004088002efe070060392800d1
:1013f000d8fe0700a2fe0700703a2800d5fe0700bd
:101400000080fa00000006000000fa009cfe0700c1
:10141000803b2800cffe070099fe0700903c280083
:10142000ccfe070080bb200099050700bfff070026
:101430000080fa00000006000000fa0090fe07009d
:10144000803b2800c3fe07008dfe0700a03d28005a
:10145000c0fe070080bb20008d050700b3ff07001a
:101460000080fa00000006000000fa0006c8bf0075
:101470000004a2000080fb000040780006e8b700ee
:1014800006c8bf000004e0000a0032006bfe07003f
:10149000803b2800affe070068fe0700b03e280032
:1014a000acfe070080bb2000790507009fff070006
:1014b0000900370061fe0700803b2800a5fe0700f9
:1014c0005efe0700a03f2800a2fe070080bb2000b0
:1014d0006f05070095ff07000080fa000000060076
:1014e0000200fa0060f42200104078000004e000de
:1014f0001b003200f0cdb300004f78000040eb003d
:1015000010479800e7fd0700a040280091fe070063
:101510005bfe0700c0f322008efe07006100200082
:101520001000200001fe0700c0f32200650040000b
:1015300088fe0700b100200010002000fbfd07001e
:10154000c0f322006a00400082fe07000e0078000f
:1015500080fe0700b04128007efe07000a00370029
:10156000d0fd0700d04128007afe070044fe0700a6
:101570007042280077fe07000768ef00803e2000d9
:101580004305070074ff07000080fa000000060012
:101590000000fa00c3fd070039fe070040432800a1
:1015a0006cfe0700c05d200039050700bdfd070087
:1015b0004043280067fe070031fe07000044280072
:1015c00064fe0700c05d200031050700b5fd07007f
:1015d000004428005ffe070029fe0700c0442800e1
:1015e0005cfe0700c05d200029050700adfd070077
:1015f000c044280057fe0700c05d200024050700f6
:10160000a8fd0700803e2000210507005dff0700c0
:101610000080fa00000006000200fa00000f7800c7
:101620001e007800e20f50000e003200e30f500061
:1016300016003200e10f50001f003a0099fd07002c
:101640008045280043fe07000dfe070020462800c5
:1016500040fe0700007d20000d05070049ff070040
:10166000160037008ffd0700e046280039fe07000e
:1016700003fe07002046280036fe0700007d2000fc
:10168000030507003fff07000c00370085fd07003a
:10169000804728002ffe0700f9fd0700204628009c
:1016a0002cfe0700007d2000f904070035ff07002d
:1016b0000000000001003700000000000080fa0078
:1016c000000006000000fa0076fd07002048280010
:1016d00020fe0700c05d2000ed04070029ff070081
:1016e0000080fa00000006000000fa006dfd07000f
:1016f000e048280017fe0700e1fd0700f049280038
:1017000014fe0700409c2000e104070028ff0700aa
:101710000080fa00000006000800fa000000eb005c
:10172000000f780010002000100798001e009000a5
:10173000004078000043b00040479800e0c2b3008a
:10174000504798000040eb00604798003c0037008d
:101750001e0078000000e00016003a001e00900015
:10176000004078000043b000404798004dfd07005e
:10177000c3fd070064004700f6fd0700428120001a
:101780009e007800401f20000088b900000078000b
:1017900000004100effd07001e0fe8001e00900052
:1017a0000000e80010079800e02e2000b8040700b1
:1017b000230037003bfd07001e009000004078002a
:1017c000f042b0004047980064004700e1fd070088
:1017d000428120001e0078008000e900401f2000a8
:1017e0000088b9000000780000004100d9fd070022
:1017f000a3fd07001e009000004078000043b000e9
:101800004047980064004700d2fd07004281200055
:101810009e007800401f20000088b900000078007a
:1018200000004100cbfd07001e0fe8001e009000e5
:101830000000e80010079800e02e20009404070044
:101840009e007800401f20000088b900000078004a
:10185000e6004000e080200000804000104078005a
:101860000004e000baff3a000efd07001e009000e1
:1018700000407800f042b000404798006400470004
:10188000b4fd0700428120001e0078008000e900be
:10189000401f20000088b9000000780000004100cf
:1018a000acfd0700e02e200079040700c0fe070011
:1018b0000080fa00000006000200fa00000f780025
:1018c0001e007800e10f500007003a000057280082
:1018d0000c040700c00d20006d04070020572800ed
:1018e000080407000f0037001e007800e20f5000c8
:1018f00003003a005057280002040700090037008f
:101900001e007800e30f500006003a0080572800c0
:10191000fc03070060f72200fa030700d0572800f5
:10192000f80307000080fa0000000600d200fa0069
:1019300000af98000000eb00000f78000000eb0003
:1019400010079800010037001e0fe8001e00780005
:101950008ea8900000804000104078000004e00055
:10196000610032001e0078008ea8900000804000c8
:101970009040780050c2b30080cf5000f2ff3a0090
:101980005a0037000000eb002007980001003700e4
:101990001e0fe8001e0078008ea890000080400016
:1019a0009040780050c2b30080cf5000f8ff320062
:1019b0000c0037001e0078008ea8900000804000c8
:1019c00090407800680147002e0090000000410020
:1019d000014878002e0090000000e80020079800e1
:1019e0001e0fe8001e0078008ea8900000804000c6
:1019f000104078000004e000070032001e0078006c
:101a00008ea89000008040009040780050c2b30043
:101a100080cf5000e7ff3a00e80047002e0090001a
:101a2000008040008040eb00014878000000eb009f
:101a3000300798000c003700e80047003e00900097
:101a40000080400090407800c20620000e01410056
:101a50003e00900000004100014878003e009000e8
:101a60000000e80030079800e80047003e009000c2
:101a70000080400090407800c0c2b30080cf50008a
:101a8000edff3a00c10620008e8040003e0090002d
:101a9000008040008040eb00014878000e48900034
:101aa0000004e000110032000e489000ed4f50009d
:101ab0000e003200428120009e009000401f200056
:101ac0000088b90000007800000041009e009000ee
:101ad0008100e80011079800c10620008e804000b8
:101ae000b2fa070001003700000000001e00780075
:101af0008ea8900000804000104078000004e000b4
:101b0000a0ff3a000080fa00000006000e00fa0074
:101b1000889fbe008a1f78005007980061079800d0
:101b20000f0478000f007800800478005e009000b9
:101b3000a4fa0700800078008100e90031079800ce
:101b40000000e8000000e8000000d1008000400034
:101b50000f007800818747000000e8000000d100f6
:101b600000004000400798005e00900095fa0700d2
:101b70000000e900000f78000000eb00200798004b
:101b8000240037000000eb00100798000d0037001c
:101b90009e0090002e00900000804000ee0090001b
:101ba00000804000904078004e0190001e009000a0
:101bb00000004100014878001e0090000000e8008d
:101bc000100798001e0590005e0090007dfa070047
:101bd000800f5500eeff3900ce0090001e009000ef
:101be000008040008040eb00014878004e009000eb
:101bf000de0090005dfa07000000e00002003a00fd
:101c000010c0b3000f0037002e0090000000e80065
:101c1000200798001e007800ee0090000080400031
:101c2000104078000080fb000000ea004f00de005a
:101c3000004078001e0fe8000004e000d1ff3a00e9
:101c40000040eb0089077800880778004f0578008e
:101c50004f04be000080fa00000006000c00fa00ed
:101c6000500798000000eb00400798000000eb00d0
:101c7000000f78000c003700e03222009e00400088
:101c8000e08020000080400090407800c0c2b30097
:101c900080cf500003003a004e0090000000e800a2
:101ca000400798001e0fe800e03222009e0040002e
:101cb000e080200000804000104078000004e00038
:101cc000edff3a004e009000e30f5000020032009a
:101cd0000040eb00490037000000eb0020079800af
:101ce000904080006300b90000007800000f780089
:101cf0003b0037000000eb0030079800ae0090007a
:101d000011079800290037009e009000e032220061
:101d100080804000e08020000080400090407800fb
:101d2000f0c2b30080cf50001a0034009e00900033
:101d3000e032220080804000e080200000804000ef
:101d40009040780090c3b30080cf500011003c0059
:101d50009e009000e032220080804000e080200061
:101d600000804000104178001e0078006500b90036
:101d7000800078003e00900080804000c0f3220088
:101d800000804000024878003e0090000000e8001b
:101d9000300798002e0090000000e800200798000f
:101da0001e0090000000e800100798009e009000c0
:101db000e032220080804000e0802000008040006f
:101dc00090407800c0c2b30080cf5000ceff3a00f0
:101dd0002e0090000000e800200798001e0fe80089
:101de000904080000000e8006300b9000000780027
:101df0009e0f5000bfff3c0010c0b3000080fa00ef
:101e0000000006000000fa00f0572800a3020700b7
:101e100010002000a8fe070000000000c1b322004f
:101e20007058280039ff07000004a2000004e000f9
:101e3000faff3a00c0582800b20207000000000074
:101e4000c1b322001059280030ff07000004a2008f
:101e50000004e000faff3a00c0592800a902070078
:101e600000000000c1b32200105a280027ff07001d
:101e70000004a2000004e000faff3a000240200043
:101e80008000eb00c0b32200b1f907000000eb00b6
:101e900080408800505a2800800207000080fa0025
:101ea000000006000200fa0010f622008040eb005d
:101eb00001487800e0f522008040eb0001487800fe
:101ec000a0f5220011c0b30001487800b0f522004f
:101ed00011c0b30001487800c0f5220011c0b30062
:101ee00001487800024020008000eb00c0b32200cf
:101ef00097f907000000eb00000f78000a00370098
:101f00009e007800401f20000088b9008000780003
:101f10004081200000804000421f20008000eb0034
:101f20008bf907001e0fe8001e007800ee0f50002e
:101f3000f3ff34000000eb00904088000000eb004d
:101f4000804088000080fa00000006000200fa00cd
:101f500007c8bf000004e0000500320000f62200c0
:101f6000104078000004e000010032005cfd070032
:101f7000204080000000e00002003200204080008d
:101f8000b3010700f0f52200104078000004e000e3
:101f90001e003200004b2800400207000000eb004a
:101fa000000f780009003700204c28003b02070092
:101fb000c2f322001e0078006500b900000078001e
:101fc00000004100350207001e0fe8001e007800e7
:101fd000e80f50000a003c001e0078006500b900c0
:101fe00080007800e072220080804000e0802000c5
:101ff00000804000104078000004e000eaff3a0052
:10200000504c2800250207001d0037000000eb009f
:10201000000f7800904d2800200207000a003700ca
:10202000428120009e007800401f20000088b900f7
:1020300000007800000041001e0fe80017020700b2
:10204000204c2800150207009e007800401f200049
:102050000088b90000007800e6004000e080200021
:1020600000804000104078000004e000ecff3a00df
:10207000104f280009020700204c28000702070023
:10208000c1b3220090502800a0fe07000004e00029
:10209000020032000c28ef0082ff0700c1b32200cb
:1020a0000051280099fe07000004e0000200320001
:1020b0000c28ef007bff0700604080000000e0007c
:1020c0000d003a0010f62200104078000004a20033
:1020d0000004e0009300320010f6220011c0b300ab
:1020e00001487800100020006040880010002000a7
:1020f000f1fd07008b00370060408000e10f5000c9
:102100005b003a00a0f52200104078000004e000d7
:1021100010003200c1b32200b05128007bfe07003e
:102120000004e0000b003200a0f522008040eb002c
:1021300001487800024020008000eb00c0b322007c
:1021400003f907000000eb00804088002000200019
:10215000d9fd0700b0f52200104078000004e0002f
:1021600002003200c0b32200f0fd0700b0f52200eb
:10217000104078000004e00010003200c1b32200db
:1021800060f7220061fe07000004e0000b0032004f
:10219000b0f522008040eb000148780002402000aa
:1021a0008000eb00c0b32200e9f807000000eb005c
:1021b0008040880030002000bffd0700c0f52200ed
:1021c000104078000004e00013003200c1b3220088
:1021d000005228004dfe07000004e0000e0032000f
:1021e000c0f522008040eb0001487800024020004a
:1021f0008000eb00c0b32200d5f807000000eb0020
:1022000080408800e0f5220011c0b300014878004a
:10221000c0522800bb010700e0f522001040780002
:102220000004e0003f003200c0b322008bfe070034
:102230000004e0003b003200024020008000eb0080
:10224000c0b32200c2f807000000eb008040880005
:10225000904080000000e8009040880020002000ae
:1022600060408800805328008c0107002d00370053
:1022700060408000e20f500027003a00e0f52200a5
:10228000104078000004e0000b003200e0f522006e
:102290008040eb0001487800024020008000eb0005
:1022a000c0b32200aaf807000000eb0080408800bd
:1022b000b054280093010700c1b322000052280047
:1022c00012fe07000004e000080032000240200077
:1022d0008000eb00c0b322009df807000000eb0077
:1022e000804088007055280086010700c0b3220096
:1022f0005afe07000004e0000a003200f0f5220058
:1023000011c0b30001487800e6fe0700b055280070
:10231000620107000300370060408000e30f5000b7
:102320000000320000f622008040eb0001487800f7
:102330000080fa00000006000000fa000600070016
:102340000d00070045000700520007006a00070063
:102350000080fa00000006000000fa007a26ef0074
:102360000080eb00b03388007e26ef007726a900be
:102370000080fa00000006000000fa009823ef0039
:102380009a23ef0076e6a9007706a800d13e8000e8
:10239000f00f2800808060000030200001007000f5
:1023a000d03e8800a13d800000fc2f00008060002e
:1023b0000030a000a03d88008960a9006105800070
:1023c000f0ff280080806000000023000100700002
:1023d000600588009960a80090012000001d880019
:1023e00099e3a8009b43a800ae23ef00b023ef00c1
:1023f000b13e8000f00f2800808060000050200077
:1024000001007000b03e8800b13d800000fc2f004c
:10241000008060000010a000b03d88007666a90032
:102420007646a8008bc0a900b1058000f08f2f0070
:10243000808060000030200001007000b00588003e
:102440009bc0a80090012000b01d8800afe3a80049
:10245000b143a8000080fa00000006000000fa0066
:102460008b06a9008b26a90077e6a90077c6a900ec
:1024700062e6a9006346a900b9f9070009fa070056
:1024800010c0b3008ffa07009cfb07000080fa0021
:10249000000006000000fa0077a6a8007786a800d2
:1024a0007766a8007746a8008346a8008366a80040
:1024b0008386a80083a6a8008746a8008766a80090
:1024c0008786a80087a6a8005fe6a8008426ef00fc
:1024d0008a60a90081058000f0ff280080806000ec
:1024e0000000230001007000800588009a60a800a9
:1024f0000080fa00000006000200fa000000eb0075
:10250000000f78000a0037009e007800401f20006e
:102510000088b900800078004081200000804000e1
:10252000421f20008000eb0009f807001e0fe800a2
:102530001e007800ee0f5000f3ff34000000eb00a7
:10254000000f78000a0037009e007800401f20002e
:102550000088b9008000780000562200008040000a
:10256000421f20008000eb00f9f707001e0fe80073
:102570001e007800e20f5000f3ff34000000eb0073
:10258000000f7800090037001e0078006500b900d0
:1025900080007800c0f3220000804000520020003c
:1025a0008000eb00eaf707001e0fe8001e0078002d
:1025b000e50f5000f4ff3400024020008000eb00e3
:1025c000c0b32200e2f70700e080200011c0b30092
:1025d00001487800d0f522008040eb0001487800e7
:1025e00000f622008040eb0001487800f0f5220060
:1025f0008040eb0001487800e0f522008040eb00cd
:102600000148780010f622008040eb000148780075
:10261000a0f5220011c0b30001487800b0f52200f7
:1026200011c0b30001487800c0f5220011c0b3000a
:10263000014878000000eb00904088000000eb00ab
:10264000804088000c28ef000080fa00000006009f
:102650000200fa00000f780000408000e20f5000f6
:1026600036003200e20f500005003c000000e000a0
:102670000a003200e10f50001c00320084003700d5
:10268000e40f500052003200e40f50003d003500ce
:10269000e50f50005c0032007d0037001e0078001e
:1026a000e10f500002003a0020fb070078003700dd
:1026b0001e007800e20f500002003a0026fb0700df
:1026c000730037001e007800e30f500002003a004c
:1026d00011fc07006e0037001e007800e40f500068
:1026e00060003a0000fc0700690037001e00780017
:1026f000e10f500002003a0043fb0700640037007e
:102700001e007800e20f500002003a004afb07006a
:102710005f0037001e007800e30f500002003a000f
:1027200051fb07005a0037001e007800e40f5000ec
:102730004e003a00f1fa0700550037001e007800fd
:10274000e10f500003003a0010c0b30007e8b700e3
:102750004f0037001e007800e20f500003003a00df
:102760000768ef00fcfa0700490037001e007800f8
:10277000e40f50003f003a000768ef00dffa07005f
:10278000430037001e007800e10f500002003a00bd
:102790007ffb0700090037001e007800e20f5000a1
:1027a00002003a000dfb0700040037001e0078000d
:1027b000e30f500001003a00c2fb07001e00780042
:1027c000e40f50002d003a00ccfa0700300037002b
:1027d0001e007800e10f500001003a00cefb070018
:1027e0001e007800e30f500002003a00befb070015
:1027f000270037001e007800e40f500021003a0047
:10280000befa0700220037001e007800e10f5000da
:1028100003003a00100020007ffb07001c00370077
:102820001e007800e20f500003003a002000200054
:1028300079fb0700160037001e007800e30f5000f8
:1028400003003a003000200073fb0700100037003f
:102850001e007800e40f50000c003a00c9fa07008f
:102860000b003700000000000900370000000000e6
:1028700007003700000000000500370000000000de
:1028800003003700000000000100370000000000d6
:102890000428ef000080fa00000006000400fa009f
:1028a000100798000000eb00000f78000d003700c3
:1028b00000000000d11c800000102000008060009b
:1028c0000000e000fbff32001e0078009e00900038
:1028d00000804000104078000000fb00e01c8800f1
:1028e0001e0fe8001e0078009e009000008040004f
:1028f000104078000004e000edff3a000080fa008c
:10290000000006000400fa00100798000000eb0029
:10291000000f78000d00370000000000811d8000ce
:1029200000102000008060000000e000fbff32008b
:102930001e0078009e00900000804000104078004b
:102940000000fb00901d88001e0fe8001e007800ac
:102950009e00900000804000104078000004e000dd
:10296000edff3a000080fa00000006000000fa00c7
:1029700071fe07000300370000000000010037006f
:1029800000000000a00f200041000700d1338000ac
:10299000002020000080600000f0a7000000ea0096
:1029a0000000e9004f00de00004078000080fb00de
:1029b000610060004900dd00d2338000f1df2f00ac
:1029c0008100610001007000d03388005ffd0700c6
:1029d00060408000e10f500003003a00104080008a
:1029e0000000e80010408800114080000005200031
:1029f000808f5000e0ff3400e0f5220010407800a6
:102a00000004a2000004e000ddff32000228ef0015
:042a1000dcff3700b0
:020000040000fa
:102a1400762f0000280000008200000038303100ca
:102a2400463132004235380044324600000000008e
:102a3400000000000000380030314600313242000e
:102a4400433437004236000000000000000000005c
:102a5400000000000e08000068270000800000004d
:102a64000a0800000200000082000000e8030000e1
:102a7400000800000a000000800000000c080000ac
:0c2a8400020000008000000000000000c4
:020000040000fa
:102a90000600fa00200798002e0090000000400079
:102aa000000f78000a003700c011200010079800be
:102ab000030037001e0090000000e9001007980096
:102ac0001e0090000000e000faff3c001e0fe9002d
:102ad0001e0078000000e000f3ff3c000080fa00d8
:042ae00000000600ec
:020000040000fa
:020000040005f5
:045e0000ffff0000a0
:020000040000fa
:020000040005f5
:045e2000ffffff0081
:020000040000fa
:020000040005f5
:045e3000f8ffff0078
:020000040000fa
:020000040005f5
:045e3800b7ffff00b1
:020000040000fa
:020000040005f5
:045e40009fffff00c1
:020000040000fa
:020000040005f5
:045e4800ffffff0059
:020000040000fa
:020000040005f5
:045e5000dfffff0071
:020000040000fa
:020000040005f5
:045e5800ffffff0049
:00000001FF
