:020000040000fa
:080000000001040000000000f3
:020000040000fa
:04000800a202000050
:020000040000fa
:04000c00a20200004c
:020000040000fa
:04001000a202000048
:020000040000fa
:04001400a202000044
:020000040000fa
:04001800a202000040
:020000040000fa
:04001c00a20200003c
:020000040000fa
:04002000a202000038
:020000040000fa
:04002400a202000034
:020000040000fa
:04002800a202000030
:020000040000fa
:04002c00a20200002c
:020000040000fa
:04003000a202000028
:020000040000fa
:04003400a202000024
:020000040000fa
:04003800a202000020
:020000040000fa
:04003c00a20200001c
:020000040000fa
:04004000a202000018
:020000040000fa
:04004400a202000014
:020000040000fa
:04004800a202000010
:020000040000fa
:04004c00a20200000c
:020000040000fa
:04005000a202000008
:020000040000fa
:0400540004020000a2
:020000040000fa
:04005800a202000000
:020000040000fa
:04005c00a2020000fc
:020000040000fa
:04006000a2020000f8
:020000040000fa
:04006400a2020000f4
:020000040000fa
:04006800a2020000f0
:020000040000fa
:04006c00a2020000ec
:020000040000fa
:04007000a2020000e8
:020000040000fa
:040074005602000030
:020000040000fa
:04007800a2020000e0
:020000040000fa
:04007c00a2020000dc
:020000040000fa
:04008000a2020000d8
:020000040000fa
:04008400a2020000d4
:020000040000fa
:04008800a2020000d0
:020000040000fa
:04008c00a2020000cc
:020000040000fa
:04009000a2020000c8
:020000040000fa
:04009400a2020000c4
:020000040000fa
:04009800a2020000c0
:020000040000fa
:04009c00a2020000bc
:020000040000fa
:0400a0001802000042
:020000040000fa
:0400a400a2020000b4
:020000040000fa
:0400a800a2020000b0
:020000040000fa
:0400ac00a2020000ac
:020000040000fa
:0400b000a2020000a8
:020000040000fa
:0400b400a2020000a4
:020000040000fa
:0400b800a2020000a0
:020000040000fa
:0400bc00a20200009c
:020000040000fa
:0400c000a202000098
:020000040000fa
:0400c400a202000094
:020000040000fa
:0400c800a202000090
:020000040000fa
:0400cc00a20200008c
:020000040000fa
:0400d000a202000088
:020000040000fa
:0400d400a202000084
:020000040000fa
:0400d800a202000080
:020000040000fa
:0400dc00a20200007c
:020000040000fa
:0400e000a202000078
:020000040000fa
:0400e400a202000074
:020000040000fa
:0400e800a202000070
:020000040000fa
:0400ec00a20200006c
:020000040000fa
:0400f000a202000068
:020000040000fa
:0400f400a202000064
:020000040000fa
:0400f800a202000060
:020000040000fa
:0400fc00a20200005c
:020000040000fa
:04010000a202000057
:020000040000fa
:04010400a202000053
:020000040000fa
:04010800a20200004f
:020000040000fa
:04010c00a20200004b
:020000040000fa
:04011000a202000047
:020000040000fa
:04011400a202000043
:020000040000fa
:04011800a20200003f
:020000040000fa
:04011c00a20200003b
:020000040000fa
:04012000a202000037
:020000040000fa
:04012400a202000033
:020000040000fa
:04012800a20200002f
:020000040000fa
:04012c00a20200002b
:020000040000fa
:04013000a202000027
:020000040000fa
:04013400a202000023
:020000040000fa
:04013800a20200001f
:020000040000fa
:04013c00a20200001b
:020000040000fa
:04014000a202000017
:020000040000fa
:04014400a202000013
:020000040000fa
:04014800a20200000f
:020000040000fa
:04014c00a20200000b
:020000040000fa
:04015000a202000007
:020000040000fa
:04015400a202000003
:020000040000fa
:04015800a2020000ff
:020000040000fa
:04015c00a2020000fb
:020000040000fa
:04016000a2020000f7
:020000040000fa
:04016400a2020000f3
:020000040000fa
:04016800a2020000ef
:020000040000fa
:04016c00a2020000eb
:020000040000fa
:04017000a2020000e7
:020000040000fa
:04017400a2020000e3
:020000040000fa
:04017800a2020000df
:020000040000fa
:04017c00a2020000db
:020000040000fa
:04018000a2020000d7
:020000040000fa
:04018400a2020000d3
:020000040000fa
:04018800a2020000cf
:020000040000fa
:04018c00a2020000cb
:020000040000fa
:04019000a2020000c7
:020000040000fa
:04019400a2020000c3
:020000040000fa
:04019800a2020000bf
:020000040000fa
:04019c00a2020000bb
:020000040000fa
:0401a000a2020000b7
:020000040000fa
:0401a400a2020000b3
:020000040000fa
:0401a800a2020000af
:020000040000fa
:0401ac00a2020000ab
:020000040000fa
:0401b000a2020000a7
:020000040000fa
:0401b400a2020000a3
:020000040000fa
:0401b800a20200009f
:020000040000fa
:0401bc00a20200009b
:020000040000fa
:0401c000a202000097
:020000040000fa
:0401c400a202000093
:020000040000fa
:0401c800a20200008f
:020000040000fa
:0401cc00a20200008b
:020000040000fa
:0401d000a202000087
:020000040000fa
:0401d400a202000083
:020000040000fa
:0401d800a20200007f
:020000040000fa
:0401dc00a20200007b
:020000040000fa
:0401e000a202000077
:020000040000fa
:0401e400a202000073
:020000040000fa
:0401e800a20200006f
:020000040000fa
:0401ec00a20200006b
:020000040000fa
:0401f000a202000067
:020000040000fa
:0401f400a202000063
:020000040000fa
:0401f800a20200005f
:020000040000fa
:0401fc00a20200005b
:020000040000fa
:100200008ffc22000e7f24000e01880000000000f9
:10021000000020000000e000020032000001200089
:100220002002880014000700c80007000000e0005a
:1002300003003a00e07b21000100200002003700ab
:100240000000200001002000810f7000010032003a
:1002500014000700000020000000e000020032004f
:100260000000020000000000401802000000000032
:100270000040da000000fe004440a90040232000b6
:100280000000e00003003200002020009001880000
:100290004440a800000006008a1f78008b1f7800e9
:1002a00000000600a1028800800478000000eb0036
:1002b0001f003700e284440054a0b4009905ba003e
:1002c000e284440054a0b4009906ba00e2844400d9
:1002d00054a0b4000006eb00476fde00fd07b2003b
:1002e000ae018800636ce10003003a00eaff0700fa
:1002f0000000eb000e003700606ce10008003a00df
:10030000004deb000a05e800020039003420ec0043
:100310000af0a0008b05e900f9ff3e000400370059
:100320006168e100010032000086eb000b0007006d
:1003300019c7ba001905ba000e04e00003003a001c
:100340000a00e000dbff3a0000000600fe07b200f2
:10035000ae0288008a047800f5ff37000cd0a300b5
:10036000e20f4d001c00390089027800354dba00bb
:100370000a05e800020039003420ec000af0a00071
:100380008b05e9000f003200254dba000a05e80090
:10039000020039003420ec000af0a0008b05e900cf
:1003a000080032000c00e0000600320015cdba0053
:1003b0000a05e800020039003420ec000af0a00031
:1003c0008b05e9008984e80054a0b4000b00e0002c
:1003d000e2ff3a00000006009902ba00055d7800cd
:1003e0008b05e900f7ff3200c82ade00055d7800c2
:1003f0008b05e900f3ff32000c00e000f1ff320052
:1004000019ddba00eeff3700801f78000200fa0005
:10041000f01c8000004f78001e00fb00e01c8800ec
:100420008960a9000080fa004f00780000400600b3
:10043000809fbe000200fa00a01d8000004f7800df
:100440001e4078000004e00014003200914080005b
:10045000f03f2000808f500002003a000000eb00c7
:100460009040880090408000e1b32200810040006d
:100470009e4878000000e80090408800914080008d
:10048000e0b32200008040008040eb00014878008b
:1004900010f7220011c0b300014878008bc0a900fa
:1004a0000080fa004f00be0000400600809fbe00a2
:1004b0000000fa002134800000002200008060006b
:1004c0000000e000030032001000200020408800ff
:1004d00017003700213480000000210000806000f8
:1004e0000000e000030032002000200020408800cf
:1004f0000f00370021348000008020000080600061
:100500000000e0000300320030002000204088009e
:100510000700370021348000004020000080600088
:100520000000e0000200320040002000204088006f
:100530008426ef008a60a9000080fa004f00be0008
:10054000004006000040da000000fe000000050048
:100550008001780002003700815978000201e9002b
:100560000200e000fcff3a00000006000200370035
:100570000204e0000b0032008101780000027800e4
:1005800030417800b14f5100f9ff320010002000d7
:1005900014427800934f5200030031000080eb00ba
:1005a000000006000000eb000000060000017800db
:1005b000b1417800035978000304e000fcff3a00e1
:1005c0000000060080007800010178003104e0009e
:0c05d000fdff3a00000051000000060092
:020000040000fa
:1005dc00312e00005761000074650000722000008d
:1005ec0020200000322e00004461000074610000e5
:1005fc00003300002e5600006965000077200000d3
:10060c0020200000203400002e4900006e660000ff
:10061c006f000000312e00004f4e00002020000023
:10062c002020000020200000322e00004f46000049
:10063c0046000000332e000041750000746f00006e
:10064c002020000020200000342e00004261000019
:10065c00636b0000003100002e4e00006f64000040
:10066c006531000020200000322e00004e6f00008b
:10067c006465000032000000332e00004e6f000055
:10068c00646500003320000020200000342e0000a0
:10069c0042610000636b0000003100002e5300002b
:1006ac00686f00007720000020200000203200003e
:1006bc002e4800006964000065000000332e000025
:1006cc004e2f0000412000002020000020200000c0
:1006dc00342e000042610000636b0000002000001b
:1006ec0020200000202000002020000020200000fe
:1006fc00202000002020000020200000200000000e
:10070c005761000074650000726900006e6700009c
:10071c00204500006e610000626c00006564000002
:10072c000057000061740000657200002073000027
:10073c006875000074200000646f0000776e000084
:10074c002100000041750000746f00002d7700003f
:10075c0061740000657200003a2000004f4e0000ea
:10076c0000410000757400006f2d000077610000df
:10077c0074650000723a0000204f000046460000ed
:10078c00005300006f6900006c200000204c00003a
:10079c00757800002020000020540000656d0000da
:1007ac007000000046000000446900007363000004
:1007bc006f6e00006e6500006374000065640000dd
:1007cc00003100003d3e0000546f0000702000001e
:1007dc00323d00003e5400006f7000002d4d0000b3
:1007ec0064000000333d00003e4200006f740000c6
:1007fc002d4d000064200000343d00003e420000fe
:10080c006f740000000000000d0a00002d2d000088
:10081c0044610000746100002d2d00000d0a0000e1
:10082c00000d00000a00000052450000424f00007d
:10083c004f54000000530000454e0000445f000080
:10084c0044410000544100002c300000000d000019
:10085c000a44000061740000612000003120000097
:10086c007265000063650000697600006564000035
:10087c00004300004d4400003e00000053540000b3
:10088c0052450000414d00005f4f000050450000f4
:10089c004e00000044490000534300004f4e00003e
:1008ac004e45000043540000000d00000a440000b7
:1008bc0049530000434f00004e4e000045430000da
:1008cc0054310000000d00000a5300005455000084
:1008dc00434b0000312e00002e2e00002042000061
:1008ec00554600003a0d00000a000000522c000092
:1008fc00310d000000450000727200000025000060
:10090c0052450000424f00004f54000025000000eb
:10091c000d0a0000446100007461000020320000e8
:10092c0020720000656300006569000076650000b8
:10093c00640000000d0a000044490000534300000d
:10094c004f4e00004e4500004354000032000000a2
:10095c000d0a000053540000554300004b320000b8
:10096c002e2e00002e20000042550000463a0000ba
:10097c000d0a0000000d00000a4400006174000024
:10098c0061200000332000007265000063650000e8
:10099c006976000065640000000d00000a44000048
:1009ac0049530000434f00004e4e000045430000e9
:1009bc0054330000000d00000a5300005455000091
:1009cc00434b0000332e00002e2e0000204200006e
:1009dc00554600003a0d00000a00000024000000fb
:1009ec0024240000004600000d000000432c0000f1
:1009fc00302c0000000d0000004300004d440000ae
:100a0c003e0000004b2c0000310d000000440000a3
:100a1c0049530000434f00004e4e00004543000078
:100a2c00540000002d2d00002d0d0000004500008d
:080a3c004e4400000000000020
:020000040000fa
:100a44000000fa00f00020007709070014c0b3008a
:100a540013c0b3000041eb008040eb000040eb000a
:100a640074010700a00020006f09070014c0b30040
:100a740013c0b3000041eb008040eb000040eb00ea
:100a84006c010700500020006709070014c0b30080
:100a940013c0b3000041eb008040eb000040eb00ca
:100aa40064010700a00020005f0907000042eb007a
:100ab40013c0b3000041eb008040eb000040eb00aa
:100ac4005c01070050002000570907000042eb00ba
:100ad40013c0b3000041eb008040eb000040eb008a
:100ae40054010700a00020004f0907000042eb005a
:100af4008041eb000041eb0011c0b3000040eb006b
:100b04004c01070050002000470907000042eb0099
:100b14008041eb000041eb008040eb000040eb0023
:100b24004401070014c0b30013c0b30012c0b300e3
:100b340011c0b3000040eb003e010700500020004c
:100b4400390907000042eb008041eb000041eb0053
:100b54008040eb000040eb00360107000042eb0050
:100b640013c0b30012c0b3008040eb000040eb00a0
:100b740030010700500020002b0907000080fa0014
:100b8400000006000000fa000042eb008041eb0088
:100b94000041eb008040eb000040eb002501070022
:100ba40014c0b3008041eb000041eb008040eb0037
:100bb4000040eb001f010700500020001a09070045
:100bc4000080fa00000006000000fa000042eb007a
:100bd4008041eb000041eb008040eb000040eb0063
:100be400140107000042eb0013c0b3000041eb0006
:100bf4008040eb000040eb000e0107005000200095
:100c0400090907000080fa00000006000400fa0049
:100c1400000f7800110798001e007800e10f5000c3
:100c240009003c001e0078000000e00006003500ca
:100c34001e009000ef0f500003003c001e009000c7
:100c44000000e00002003d000040eb0031003700ee
:100c54001e00780000f0a7000000ea000000ea008f
:100c64004f00de00004078000042eb008041eb00c2
:100c74000041780011c0b3000040eb00ed00070014
:100c84001e0090006100600000f0a7000000ea0070
:100c94000000ea004f00de00804178001e00900052
:100ca4006200600000f0a7000000ea000000ea0013
:100cb4004f00de00004178001e00900064006000d8
:100cc40000f0a7000000ea000000ea004f00de0088
:100cd400804078001e0090006800600000f0a700cb
:100ce4000000ea000000ea004f00de000040780047
:100cf4000342780082417800014178008040780006
:100d04000040eb00cb00070050002000c60807009d
:100d140010c0b3000080fa00000006000000fa00d2
:100d24000042eb008041eb000041eb0011c0b30036
:100d34000040eb00bf0007000042eb008041eb00e5
:100d44000041eb008040eb000040eb00b9000700dd
:100d540050002000b40807000080fa0000000600dc
:100d64000000fa000042eb008041eb0012c0b30027
:100d740011c0b3000040eb00ae0007000042eb00de
:100d84008041eb000041eb008040eb000040eb00b1
:100d9400a800070050002000a30807000080fa0004
:100da400000006000200fa00004f78001e407800a0
:100db4000004e0000f0032000042eb008041eb0031
:100dc4000041eb008040eb000040eb00990007007d
:100dd40014c0b30013c0b30012c0b30011c0b300f9
:100de4000040eb0093000700500020008e0807002d
:100df4000e0037000042eb008041eb000041eb00a5
:100e04008040eb000040eb008a0007000042eb004a
:100e14008041eb0012c0b30011c0b3000040eb00ee
:100e240084000700500020007f0807000080fa00bb
:100e3400000006000a00fa00400798000000eb00da
:100e440020079800730037000000eb00300798007b
:100e54006d0037003e0090000000e00030003a00d2
:100e64002e009000ce0090000080400010407800da
:100e74008000fb00000820000080600000f0a70054
:100e84000000ea000000ea004f00de00004f780096
:100e94002e009000ce0090000080400010407800aa
:100ea4008000fb00000420000080600000f0a70028
:100eb4000000ea000000ea004f00de00104798003e
:100ec4002e009000ce00900000804000104078007a
:100ed4008000fb00000220000080600000f0a700fa
:100ee4000000ea000000ea004f00de0020479800fe
:100ef4002e009000ce00900000804000104078004a
:100f04000000fb007000600000f0a7000000ea0091
:100f14000000ea004f00de00304798002f00370041
:100f24002e009000ce009000008040001040780019
:100f34000000fb006800600000f0a7000000ea0069
:100f44000000ea004f00de00004f78002e00900001
:100f5400ce00900000804000104078000000fb00ac
:100f64006400600000f0a7000000ea000000ea004e
:100f74004f00de00104798002e009000ce00900035
:100f840000804000104078000000fb006200600018
:100f940000f0a7000000ea000000ea004f00de00b5
:100fa400204798002e009000ce0090000080400062
:100fb400104078000000fb006100600000f0a70012
:100fc4000000ea000000ea004f00de00304798000d
:100fd4002e0090000000e800200798003e42900098
:100fe400ae4190001e4190009e40780010c0b300b6
:100ff40010000700500020000b0807003e0090007e
:101004000000e800300798003e009000e10f500017
:1010140090ff34002e009000ce009000008040002d
:10102400104078000004e00087ff3a000080fa00d6
:10103400000006000600fa00004f780011479800ef
:101044002247980033479800444798001e80fb00cd
:10105400610060004800dd0072348000f1ef2f0071
:101064008100610001007000703488001e4090000f
:101074000080fb004f00dd00d2338000f1ff270029
:101084008100610001007000d03388002e40900080
:101094000080fb00610060004e00dd00d233800060
:1010a400f1ff2b008100610001007000d033880043
:1010b4003e4090000080fb00610060004700dd00be
:1010c40032338000f1f72f008100610001007000cd
:1010d400303388004e4090000080fb0061006000c7
:1010e4004a00dd0032338000f1bf2f00810061002f
:1010f40001007000303388008f26a8008f26a900d5
:101104000080fa00000006000600fa00004f780094
:1011140011479800224798003347980044479800a5
:101124001e80fb00610060004800dd007234800016
:10113400f1ef2f008100610001007000703488001d
:101144001e4090000080fb004f00dd00d233800081
:10115400f1ff27008100610001007000d033880096
:101164002e4090000080fb00610060004e00dd0016
:10117400d2338000f1ff2b00810061000100700078
:10118400d03388003e4090000080fb006100600086
:101194004700dd0032338000f1f72f008100610049
:1011a40001007000303388004e4090000080fb0046
:1011b400610060004a00dd0032338000f1bf2f007f
:1011c4008100610001007000303388008f26a80080
:1011d4008f26a9000080fa00000006000000fa0033
:1011e4000028ef0067fe0700e02e280011ff07002b
:1011f400dbfe0700f02f28000eff07000040eb0085
:10120400e8fe07000080fa00000006000000fa0073
:1012140010002000004088005afe0700003128001a
:1012240004ff0700cefe07000032280001ff07007c
:101234000080fa00000006000000fa0020002000f0
:10124400004088004ffe070010332800f9fe070015
:10125400c3fe070020342800f6fe07000080fa00d1
:10126400000006000000fa00300020000040880062
:1012740044fe070030352800eefe0700b8fe0700e4
:1012840040362800ebfe07000080fa00000006004c
:101294000000fa00400020000040880039fe0700ea
:1012a40030352800e3fe0700adfe07004036280075
:1012b400e0fe07000080fa00000006000000fa00cb
:1012c40050002000004088002efe07003035280022
:1012d400d8fe0700a2fe070040362800d5fe07000e
:1012e4000080fa00000006000000fa009cfe0700df
:1012f40050372800cffe070099fe07006038280009
:10130400ccfe070080bb200047070700bfff070093
:101314000080fa00000006000000fa0090fe0700ba
:1013240050372800c3fe07008dfe070070392800df
:10133400c0fe070080bb20003b070700b3ff070087
:101344000080fa00000006000000fa0006c8bf0092
:101354000004a2000080fb000040780006e8b7000b
:1013640006c8bf000004e0000a0032006bfe07005c
:1013740050372800affe070068fe0700803a2800b7
:10138400acfe070080bb2000270707009fff070073
:101394000900370061fe070050372800a5fe07004a
:1013a4005efe0700703b2800a2fe070080bb200001
:1013b4001d07070095ff07000080fa0000000600e3
:1013c4000200fa0080f42200104078000004e000db
:1013d4001b003200f0cdb300004f78000040eb005a
:1013e40010479800e7fd0700703c280091fe0700b5
:1013f4005bfe0700e0f322008efe07006100200080
:101404001000200001fe0700e0f322006500400008
:1014140088fe0700b100200010002000fbfd07003b
:10142400e0f322006a00400082fe07000e0078000c
:1014340080fe0700803d28007efe07000a0037007a
:10144400d0fd0700c0f822007afe070044fe070022
:10145400a03d280077fe07000768ef00803e2000cb
:10146400f10607007fff07000080fa000000060075
:101474000200fa0070f52200104078000004e00039
:101484001c003200f0cdb300004f78000040eb00a8
:1014940010479800bbfd0700703c280065fe07005c
:1014a4002ffe0700e0f322006f00400061fe0700fa
:1014b4006100200010002000d4fd0700e0f32200aa
:1014c400740040005bfe0700b10020001000200003
:1014d400cefd0700e0f322007900400055fe07002e
:1014e4000e00780053fe0700803d280051fe0700df
:1014f4000a003700a3fd070000fa22004dfe070092
:1015040017fe0700a03d28004afe07000868ef0008
:10151400803e2000c40607005dff07000080fa003b
:10152400000006000200fa0080f422001040780057
:101534000004e0001c003200f0cdb300004f78003e
:101544000040eb00104798008efd0700703c280017
:1015540038fe070002fe0700e0f322007e00400090
:1015640034fe07006100200010002000a7fd0700e2
:10157400e0f322003002b0002efe0700b10020008c
:1015840010002000a1fd0700e0f322008002b0005b
:1015940028fe07000e00780026fe0700803d280084
:1015a40024fe07000a00370076fd070040fb2200f6
:1015b40020fe0700eafd0700a03d28001dfe0700ed
:1015c4000968ef00803e2000970607003bff0700f4
:1015d4000080fa00000006000000fa0069fd070020
:1015e400703e280013fe0700ddfd0700803f280041
:1015f40010fe0700409c20008b060700f7fe070042
:101604000080fa00000006000800fa000000eb0069
:10161400000f780010002000100798001e009000b2
:10162400004078000043b00040479800e0c2b30097
:10163400504798000040eb00604798003c0037009a
:101644001e0078000000e00016003a001e00900022
:10165400004078000043b0004047980049fd07006f
:10166400bffd070064004700f2fd0700628120000f
:101674009e007800401f20000088b9000000780018
:1016840000004100ebfd07001e0fe8001e00900063
:101694000000e80010079800e02e20006206070012
:1016a4002300370037fd07001e009000004078003b
:1016b400f042b0004047980064004700ddfd070099
:1016c400628120001e0078008000e900401f200095
:1016d4000088b9000000780000004100d5fd070033
:1016e4009ffd07001e009000004078000043b000fa
:1016f4004047980064004700cefd07006281200047
:101704009e007800401f20000088b9000000780087
:1017140000004100c7fd07001e0fe8001e009000f6
:101724000000e80010079800e02e20003e060700a5
:101734009e007800401f20000088b9000000780057
:10174400e600400000812000008040001040780046
:101754000004e000baff3a000afd07001e009000f2
:1017640000407800f042b000404798006400470011
:10177400b0fd0700628120001e0078008000e900af
:10178400401f20000088b9000000780000004100dc
:10179400a8fd0700e02e2000230607008ffe0700a7
:1017a4000080fa00000006000200fa0020408000d9
:1017b4000000e000020032002040800036050700ef
:1017c40000f72200104078000004e0001800320006
:1017d4000000eb00000f7800a0402800b2050700cd
:1017e40009003700e2f322001e0078006500b9000a
:1017f40000007800000041001e0fe800aa05070061
:1018040070412800a80507001e0078006500b90093
:1018140080007800e0722200808040000081200077
:1018240000804000104078000004e000edff3a0022
:10183400e1b32200a0412800220307000004e000d5
:101844000100320001040700704080000000e00045
:101854000a003a0020f72200104078000004a20099
:101864000004e0000c023200100020000c0207000b
:10187400100020007040880007023700704080008c
:10188400e10f5000a4003a00104080000000e8007e
:1018940010408800f0f62200104078000004e000b8
:1018a400230032000228ef0020f7220011c0b30009
:1018b40001487800b0f622008040eb00014878002f
:1018c400c0f622008040eb0001487800d0f62200e8
:1018d4008040eb000148780050f722001040780067
:1018e4000004a2000004e0000500320050f72200ca
:1018f4008040eb000148780010422800840507006e
:10190400e0b32200430307000004e00008003200b3
:101914000228ef00d042280063050700a703070050
:1019240020002000de010700200020007040880015
:1019340020f72200104078000004a2000004e00018
:10194400060032000228ef0020f7220011c0b30085
:10195400014878001000200031020700b0f6220090
:10196400104078000004e0000b003200e1b32200d4
:10197400f0432800d30207000004e0000600320010
:101984000228ef00b0f622008040eb000148780006
:101994002000200022020700c0f622001040780038
:1019a4000004e0000b003200e1b32200c0f8220082
:1019b400c40207000004e000060032000228ef0021
:1019c400c0f622008040eb0001487800300020007f
:1019d40013020700d0f62200104078000004e00053
:1019e40012003200e1b3220040442800b50207008f
:1019f4000004e0000d0032000228ef00d0f62200bf
:101a04008040eb0001487800024020008000eb0099
:101a1400e0b32200cdfa07000000eb0090408800fc
:101a2400f0f6220011c0b30001487800e1b32200af
:101a340000452800a30207000004e0000b00320068
:101a4400b0452800180507000228ef0002402000d6
:101a54008000eb00e0b32200bcfa07000000eb00ba
:101a64009040880040002000ed01070040f722006c
:101a7400104078000004e0001e0032009046280068
:101a840009050700e0b322000705070040f722001c
:101a94008040eb000148780010002000e0010700be
:101aa400a00f200060050700c047280018050700a4
:101ab400a00020005c050700e1b3220010482800c4
:101ac40080020700c047280011050700000000003d
:101ad400e1b32200504828007a0207000004e00025
:101ae400fbff3a00100020006d01070010002000e9
:101af400704088001140800080022000808f5000d8
:101b04006501340040f7220011c0b3000148780099
:101b14000228ef006001370070408000e20f50009f
:101b2400ac003a00104080000000e800104088003b
:101b3400f0f62200104078000004e0002500320096
:101b44000228ef0020f7220011c0b30001487800fa
:101b5400b0f622008040eb0001487800c0f6220075
:101b64008040eb0001487800d0f622008040eb0072
:101b74000148780050f72200104078000004a200c9
:101b84000004e0000500320050f722008040eb0022
:101b94000148780010422800dd040700e0b3220069
:101ba4009c0207000004e0000a0032000228ef0053
:101bb400e0482800bc040700800c20001a05070038
:101bc400fe0207003000200035010700300020002d
:101bd4007040880020f72200104078000004a20022
:101be4000004e000060032000228ef0020f7220083
:101bf40011c0b300014878001000200088010700dc
:101c0400b0f62200104078000004e0000b0032001f
:101c1400e1b32200f04328002a0207000004e00098
:101c2400060032000228ef00b0f622008040eb00ec
:101c3400014878002000200079010700c0f6220046
:101c4400104078000004e0000b003200e1b32200f1
:101c540000fa22001b0207000004e0000600320024
:101c64000228ef00c0f622008040eb000148780013
:101c7400400020006a010700d0f6220010407800de
:101c84000004e00012003200e1b3220040442800c6
:101c94000c0207000004e0000d0032000228ef00ef
:101ca400d0f622008040eb0001487800024020007a
:101cb4008000eb00e0b3220024fa07000000eb00f0
:101cc40090408800f0f6220011c0b300014878006b
:101cd400e1b3220000452800fa0107000004e000f7
:101ce4000b003200004a28006f0407000228ef00ae
:101cf400024020008000eb00e0b3220013fa07004a
:101d04000000eb00904088004000200044010700e0
:101d140040f72200104078000004e0002400320064
:101d2400e04a280060040700e0b322005e040700d4
:101d340040f722008040eb000148780010002000aa
:101d440037010700a00f2000b7040700c047280090
:101d54006f040700a0002000b3040700e1b32200d1
:101d640010482800d7010700c0472800680407006e
:101d740000000000e1b3220050482800d101070010
:101d84000004e000fbff3a00024020008000eb006a
:101d9400e0b32200edf907000000eb00904088005a
:101da40010002000be0007001000200070408800d2
:101db4001140800080022000808f5000b600340063
:101dc40040f7220011c0b300014878000228ef0058
:101dd400b100370070408000e30f5000ae003a00bd
:101de400104080000000e80010408800f0f6220057
:101df400104078000004e000280032000228ef00c0
:101e040020f7220011c0b30001487800b0f6220088
:101e14008040eb0001487800c0f622008040eb00cf
:101e240001487800d0f622008040eb000148780099
:101e340050f72200104078000004a2000004e000e3
:101e44000500320050f722008040eb000148780082
:101e5400104228002e040700e0b32200ed01070021
:101e64000004e0000d0032000228ef00104c2800ae
:101e74000d040700800c20006b04070000f722000b
:101e840011c0b300014878004c0207001000200084
:101e940083000700100020007040880020f7220013
:101ea400104078000004a2000004e00006003200a4
:101eb4000228ef0020f7220011c0b3000148780087
:101ec40010002000d6000700b0f622001040780071
:101ed4000004e0000b003200e1b32200f0432800cc
:101ee400780107000004e000060032000228ef0039
:101ef400b0f622008040eb0001487800200020006a
:101f0400c7000700c0f62200104078000004e0007b
:101f14000b003200e1b3220040fb220069010700fc
:101f24000004e000060032000228ef00c0f62200a0
:101f34008040eb000148780050002000b800070002
:101f4400d0f62200104078000004e00012003200b5
:101f5400e1b32200404428005a0107000004e000d5
:101f64000d0032000228ef00d0f622008040eb0082
:101f740001487800024020008000eb00e0b322001a
:101f840072f907000000eb0090408800f0f6220090
:101f940011c0b30001487800e1b3220000452800d5
:101fa400480107000004e0000b003200304d280017
:101fb400bd0307000228ef00024020008000eb0070
:101fc400e0b3220061f907000000eb0090408800b4
:101fd400500020009200070040f7220010407800d3
:101fe4000004e00024003200104e2800ae03070075
:101ff400e0b32200ac03070040f722008040eb006e
:10200400014878001000200085000700a00f200080
:1020140005040700c0472800bd030700a0002000f6
:1020240001040700e1b3220010482800250107003d
:10203400c0472800b603070000000000e1b32200f7
:10204400504828001f0107000004e000fbff3a008d
:10205400024020008000eb00e0b322003bf90700bf
:102064000000eb0090408800300020000c000700c6
:102074003000200070408800114080008002200061
:10208400808f50000400340040f7220011c0b300d8
:10209400014878000228ef000080fa0000000600e2
:1020a4000200fa00000f78001e0078000000e00033
:1020b400590032001e007800e10f50001b003a0066
:1020c40020f722008040eb0001487800b0f622009f
:1020d40011c0b30001487800c0f6220011c0b3005b
:1020e40001487800d0f6220011c0b30001487800fe
:1020f400f0f622008040eb000148780050f72200ff
:102104008040eb00014878000000eb00a04088000c
:10211400024020008000eb00e0b322000bf907002e
:102124000000eb00904088003b0037001e00780060
:10213400e20f50001b003a0010002000a04088006d
:1021440020f722008040eb0001487800b0f622001e
:1021540011c0b30001487800c0f6220011c0b300da
:1021640001487800d0f6220011c0b300014878007d
:10217400f0f622008040eb000148780050f722007e
:102184008040eb0001487800024020008000eb0012
:10219400e0b32200edf807000000eb009040880057
:1021a4001d0037001e007800e30f50001a003a00ab
:1021b40020002000a040880020f722008040eb008f
:1021c40001487800b0f6220011c0b300014878003d
:1021d400c0f6220011c0b30001487800d0f62200f6
:1021e40011c0b30001487800f0f622008040eb00f3
:1021f4000148780050f722008040eb000148780045
:10220400024020008000eb00e0b32200cff807007a
:102214000000eb00904088000080fa0000000600f7
:102224000200fa00000f78001e007800e10f500051
:1022340007003a00404f280035030700c00d200076
:1022440079030700604f280031030700230037009b
:102254001e007800e20f500003003a00904f28005f
:102264002b0307001d0037001e007800e30f500009
:1022740007003a00c04f280025030700c0f82200d9
:102284002303070010502800210307001300370020
:102294001e007800e40f500007003a00c04f2800e9
:1022a4001b03070000fa220019030700105028003e
:1022b40017030700090037001e007800e50f5000df
:1022c40006003a00c04f28001103070040fb22001b
:1022d4000f030700105028000d0307000080fa00c8
:1022e40000000600d200fa0000af98000000eb00e6
:1022f400000f78000000eb00100798000100370081
:102304001e0fe8001e0078008ea890000080400098
:10231400104078000004e000610032001e007800e4
:102324008ea89000008040009040780050c2b30016
:1023340080cf5000f2ff3a005a0037000000eb0053
:1023440020079800010037001e0fe8001e007800e7
:102354008ea89000008040009040780050c2b300e6
:1023640080cf5000f8ff32000c0037001e007800c8
:102374008ea89000008040009040780068014700db
:102384002e00900000004100014878002e009000cb
:102394000000e800200798001e0fe8001e007800e7
:1023a4008ea8900000804000104078000004e000f7
:1023b400070032001e0078008ea8900000804000c4
:1023c4009040780050c2b30080cf5000e7ff3a003d
:1023d400e80047002e009000008040008040eb00a1
:1023e400014878000000eb00300798000c0037002b
:1023f400e80047003e0090000080400090407800d4
:10240400c20620000e0141003e0090000000410081
:10241400014878003e0090000000e8003007980072
:10242400e80047003e0090000080400090407800a3
:10243400c0c2b30080cf5000edff3a00c1062000b7
:102444008e8040003e009000008040008040eb0001
:10245400014878000e4890000004e00011003200aa
:102464000e489000ed4f50000e00320062812000b3
:102474009e009000401f20000088b90000007800f2
:10248400000041009e0090008100e80011079800c0
:10249400c10620008e80400043f807000100370089
:1024a400000000001e0078008ea89000008040000c
:1024b400104078000004e000a0ff3a000080fa0019
:1024c400000006000e00fa00889fbe008a1f7800f4
:1024d40050079800610798000f0478000f007800f7
:1024e400800478005e00900035f8070080007800d2
:1024f4008100e900310798000000e8000000e800ce
:102504000000d100800040000f0078008187470060
:102514000000e8000000d1000000400040079800df
:102524005e00900026f807000000e900000f780024
:102534000000eb0020079800240037000000eb00a7
:10254400100798000d0037009e0090002e009000a8
:1025540000804000ee009000008040009040780031
:102564004e0190001e0090000000410001487800d8
:102574001e0090000000e800100798001e0590005f
:102584005e0090000ef80700800f5500eeff390042
:10259400ce0090001e009000008040008040eb00c0
:1025a400014878004e009000de009000eef707002e
:1025b4000000e00002003a0010c0b3000f00370032
:1025c4002e0090000000e800200798001e0078000c
:1025d400ee00900000804000104078000080fb0076
:1025e4000000ea004f00de00004078001e0fe80003
:1025f4000004e000d1ff3a000040eb0089077800b6
:10260400880778004f0578004f04be000080fa0068
:10261400000006000c00fa00500798000000eb00d0
:10262400400798000000eb00000f78000c00370012
:10263400e03222009e004000008120000080400023
:1026440090407800c0c2b30080cf500003003a002d
:102654004e0090000000e800400798001e0fe800bc
:10266400e03222009e0040000081200000804000f3
:10267400104078000004e000edff3a004e009000a6
:10268400e30f5000020032000040eb004900370025
:102694000000eb0020079800a04080006300b90010
:1026a40000007800000f78003b0037000000eb00ca
:1026b40030079800ae0090001107980029003700f9
:1026c4009e009000e03222008080400000812000c3
:1026d4000080400090407800f0c2b30080cf5000ea
:1026e4001a0034009e009000e032220080804000f6
:1026f40000812000008040009040780090c3b30027
:1027040080cf500011003c009e009000e032220077
:10271400808040000081200000804000104178004b
:102724001e0078006500b900800078003e0090002b
:1027340080804000e0f322000080400002487800de
:102744003e0090000000e800300798002e00900042
:102754000000e800200798001e0090000000e80038
:10276400100798009e009000e03222008080400014
:10277400008120000080400090407800c0c2b30077
:1027840080cf5000ceff3a002e0090000000e800f9
:10279400200798001e0fe800a04080000000e80019
:1027a4006300b900000078009e0f5000bfff3c009a
:1027b40010c0b3000080fa00000006000000fa0018
:1027c4001000200096fe070000000000e1b3220084
:1027d400305028003bff07000004a2000004e00082
:1027e400faff3a0080502800c901070000000000e9
:1027f400e1b32200d050280032ff07000004a200f9
:102804000004e000faff3a0080512800c0010700ec
:1028140000000000e1b32200d051280029ff070086
:102824000004a2000004e000faff3a000240200085
:102834008000eb00e0b3220044f707000000eb0047
:10284400904088000080fa00000006000200fa00b0
:102854000e28ef0020f722008040eb0001487800aa
:10286400f0f622008040eb0001487800b0f6220028
:1028740011c0b30001487800c0f6220011c0b300b3
:1028840001487800d0f6220011c0b3000148780056
:1028940060f7220011c0b3000148780050f722000d
:1028a4008040eb0001487800024020008000eb00eb
:1028b400e0b3220025f707000000eb00000f7800ca
:1028c4000a0037009e007800401f20000088b900ed
:1028d400800078006081200000804000421f2000ba
:1028e4008000eb0019f707001e0fe8001e007800b7
:1028f400ee0f5000f3ff34000000eb00a04088000e
:102904000000eb00904088000080fa000000060000
:102914000000fa00060007000d000700450007004c
:10292400520007006a0007000080fa000000060059
:102934000000fa007a26ef000080eb00b033880034
:102944007e26ef007726a9000080fa00000006002a
:102954000000fa009823ef009a23ef0076e6a9001e
:102964007706a800d13e8000f00f28008080600028
:102974000030200001007000d03e8800a13d80009e
:1029840000fc2f00008060000030a000a03d880003
:102994008960a90061058000f0ff28008080600044
:1029a4000000230001007000600588009960a80001
:1029b40090012000001d880099e3a8009b43a80013
:1029c400ae23ef00b023ef00b13e8000f00f2800eb
:1029d400808060000050200001007000b03e88003c
:1029e400b13d800000fc2f00008060000010a000ba
:1029f400b03d88007666a9007646a8008bc0a90081
:102a0400b1058000f08f2f0080806000003020002e
:102a140001007000b00588009bc0a8009001200050
:102a2400b01d8800afe3a800b143a8000080fa00fd
:102a3400000006000000fa008b06a9008b26a900fe
:102a440077e6a90077c6a90062e6a9006346a90053
:102a5400fbf707004bf8070010c0b300d1f80700dc
:102a6400def907000080fa00000006000000fa000a
:102a740077a6a8007786a8007766a8007746a800fe
:102a84008346a8008366a8008386a80083a6a800be
:102a94008746a8008766a8008786a80087a6a8009e
:102aa4005fe6a8008426ef008a60a9008105800003
:102ab400f0ff280080806000000023000100700007
:102ac400800588009a60a8000080fa0000000600d3
:102ad4000200fa000000eb00000f78000a00370043
:102ae4009e007800401f20000088b9008000780014
:102af4006081200000804000421f20008000eb0025
:102b040092f607001e0fe8001e007800ee0f50003a
:102b1400f3ff34006081200081f72200a2f6070051
:102b240060812000401fb000c1f822009ef607001b
:102b340060812000803eb00001fa22009af607006e
:102b440061812000c05d20000080400041fb220024
:102b540095f607000000eb00000f78000a0037002c
:102b64009e007800401f20000088b9008000780093
:102b74002056220000804000421f20008000eb000d
:102b840072f607001e0fe8001e007800e20f5000e6
:102b9400f3ff34000000eb00000f78000900370059
:102ba4001e0078006500b90080007800e0f3220080
:102bb40000804000520020008000eb0063f6070014
:102bc4001e0fe8001e007800e80f5000f4ff3400e8
:102bd400024020008000eb00e0b322005bf6070017
:102be4000081200011c0b30001487800e0f6220003
:102bf4008040eb000148780010f722008040eb0091
:102c04000148780000f722008040eb00014878007a
:102c1400f0f622008040eb000148780020f7220003
:102c24008040eb0001487800b0f6220011c0b300e8
:102c340001487800c0f6220011c0b30001487800b2
:102c4400d0f6220011c0b3000148780060f72200da
:102c540011c0b3000148780030f722008040eb0037
:102c6400014878000000eb00a04088000000eb0061
:102c74009040880050f722008040eb000148780023
:102c840040f722008040eb00014878000e28ef0056
:102c94000080fa00000006000200fa00000f78002d
:102ca40000408000e20f500036003200e20f500076
:102cb40005003c000000e0000a003200e10f500073
:102cc4001c00320075003700e40f50005000320041
:102cd400e40f50003f003500e50f50005b00320068
:102ce4006e0037001e007800e10f500002003a0029
:102cf40046f90700690037001e007800e20f500013
:102d040002003a004cf90700640037001e00780006
:102d1400e30f500002003a003bfa07005f0037005f
:102d24001e007800e40f500057003a002afa07000a
:102d34005a0037001e007800e10f500002003a00ec
:102d440069f90700550037001e007800e20f5000b3
:102d540002003a0070f90700500037001e007800a6
:102d6400e30f500002003a0077f907004b003700e8
:102d74001e007800e40f500045003a0017f90700e0
:102d8400460037001e007800e10f500002003a00b0
:102d940034f90700410037001e007800e20f5000ac
:102da40002003a003af907003c0037001e007800a0
:102db400e30f500002003a0040f9070037003700e3
:102dc4001e007800e40f500033003a0003f90700b6
:102dd400320037001e007800e10f500004003a0072
:102de40077f9070010c0b30007e8b7002b003700dd
:102df4001e007800e20f500003003a000768ef005d
:102e040018f90700250037000bf9070023003700e5
:102e14001e007800e10f500004003a0094f9070006
:102e240010c0b30008e8b7001c0037001e0078008b
:102e3400e20f500003003a000868ef0014f907009d
:102e440016003700fcf80700140037001e00780055
:102e5400e10f500004003a00b2f9070010c0b300bb
:102e640009e8b7000d0037001e007800e20f50009b
:102e740003003a000968ef0010f907000700370063
:102e8400edf80700050037000000000003003700dc
:102e94000000000001003700000000000428ef00db
:102ea4000080fa00000006000400fa0010079800f1
:102eb4000000eb00000f78000d0037000000000058
:102ec400d11c800000102000008060000000e000a1
:102ed400fbff32001e0078009e009000008040003e
:102ee400104078000000fb00e01c88001e0fe80082
:102ef4001e0078009e009000008040001040780082
:102f04000004e000edff3a000080fa000000060033
:102f14000400fa00100798000000eb00000f78008e
:102f24000d00370000000000811d8000001020000b
:102f3400008060000000e000fbff32001e0078000b
:102f44009e00900000804000104078000000fb00cc
:102f5400901d88001e0fe8001e0078009e0090005f
:102f640000804000104078000004e000edff3a00cb
:082f74000080fa0000000600d5
:020000040000fa
:102f7c00782f000050000000820000003830310033
:102f8c004631320042433400374236000000000024
:102f9c0000000000000038003031460031324200a1
:102fac0043343700434400000000000000000000e0
:102fbc000038300031463100324243003437420091
:102fcc003600000000000000000000003830310026
:102fdc0046313200424334003630360000000000e7
:102fec00000000000000000010080000682700002e
:102ffc00800000000c0800000200000082000000ad
:10300c00e8030000000800000c0000008000000035
:10301c000e0800000200000080000000000000000c
:020000040000fa
:10302c000600fa00200798002e00900000004000d7
:10303c00000f78000a003700c0112000100798001c
:10304c00030037001e0090000000e90010079800f4
:10305c001e0090000000e000faff3c001e0fe9008b
:10306c001e0078000000e000f3ff3c000080fa0036
:10307c00000006000000fa0023fe070000f7220003
:10308c00104078000004e00002003200401f2000d5
:10309c00e3ff070020032000e1ff0700c0f9070051
:0430ac00f6ff3700f4
:020000040000fa
:020000040005f5
:045e0000ffff0000a0
:020000040000fa
:020000040005f5
:045e2000ffffff0081
:020000040000fa
:020000040005f5
:045e3000f8ffff0078
:020000040000fa
:020000040005f5
:045e3800b7ffff00b1
:020000040000fa
:020000040005f5
:045e40009fffff00c1
:020000040000fa
:020000040005f5
:045e4800ffffff0059
:020000040000fa
:020000040005f5
:045e5000dfffff0071
:020000040000fa
:020000040005f5
:045e5800ffffff0049
:00000001FF
